:020000040800F2
:1000000000000820DD0D0008B50B0008B70B000844
:10001000B90B0008BB0B0008BD0B00080000000076
:10002000000000000000000000000000BF0B0008FE
:10003000C10B000800000000C30B0008C50B00083E
:100040002D0E00082D0E00082D0E00082D0E0008A4
:100050002D0E00082D0E00082D0E00082D0E000894
:10006000CD0B00082D0E00082D0E00082D0E0008E7
:100070002D0E00082D0E00082D0E00082D0E000874
:100080002D0E00082D0E00082D0E00082D0E000864
:100090002D0E00082D0E00082D0E00082D0E000854
:1000A0002D0E00082D0E00082D0E00082D0E000844
:1000B0002D0E00082D0E00082D0E00082D0E000834
:1000C0002D0E00082D0E00082D0E00082D0E000824
:1000D0002D0E00082D0E00082D0E00082D0E000814
:1000E0002D0E00082D0E00082D0E00082D0E000804
:1000F0002D0E00082D0E00082D0E00082D0E0008F4
:100100002D0E0008D90B00082D0E00082D0E00083A
:100110002D0E00082D0E00082D0E00082D0E0008D3
:100120002D0E00082D0E00082D0E0008E90B00080A
:100130002D0E00082D0E00082D0E00082D0E0008B3
:100140002D0E00082D0E00082D0E00082D0E0008A3
:100150002D0E0008F90B00082D0E00082D0E0008CA
:100160002D0E00082D0E00082D0E00082D0E000883
:100170002D0E00082D0E00082D0E000800000000B6
:100180002D0E00082D0E00082D0E00082D0E000863
:100190002D0E00082D0E00082D0E00082D0E000853
:1001A0002D0E00082D0E00082D0E00082D0E000843
:1001B000090C00082D0E00082D0E00082D0E000859
:1001C0002D0E00082D0E0008000000002D0E000866
:1001D0002D0E00082D0E00082D0E00082D0E000813
:1001E0002D0E00082D0E00082D0E00082D0E000803
:0801F0002D0E00082D0E000881
:1001F80053B94AB9002908BF00281CBF4FF0FF3186
:100208004FF0FF3000F00CB8ADF1080C6DE904CEEA
:1002180005F0EAF8DDF804E0DDE9022304B07047F0
:10022800704700BF10B5054C237833B9044B13B1A0
:100238000448AFF300800123237010BD5001002053
:1002480000000000AC56000808B5034B1BB1034979
:100258000348AFF3008008BD0000000054010020EF
:10026800AC56000800B583B00E4B1A6B42F48002FE
:100278001A631B6B03F480030193019B0022114650
:100288003B2000F06DFE3B2000F07AFE0022114674
:10029800452000F065FE452000F072FE03B05DF8D1
:1002A80004FB00BF0038024010B51548154B036029
:1002B800154B00221A7080215970E1219970DA706B
:1002C8001A715A7143604FF4000383600F4BC36087
:1002D8000F4B036140F2F453436101F055FA58B9EA
:1002E8000C4C38220021204605F051F821232360C8
:1002F8004FF44003636110BD00F056F9F0E700BF0A
:1003080074010020008002406C01002010000020D1
:10031800B000002024020020F0B58DB00023079320
:10032800089309930A930B9302683A4B9A4201D0B7
:100338000DB0F0BDA3F590431A6B42F000721A633A
:100348001A6B02F000720092009A1A6B42F08062F7
:100358001A631A6B02F080620192019A1A6B42F0DA
:1003680000621A631A6B02F000620292029A1A6B18
:1003780042F004021A631A6B02F004020392039A11
:100388001A6B42F001021A631A6B02F0010204921E
:10039800049A1A6B42F002021A631A6B02F0020204
:1003A8000592059A1A6B42F040021A631B6B03F020
:1003B80040030693069B32230793022408940A9469
:1003C8000B260B9607AD2946134801F051FA8623F0
:1003D80007930894002709970A940B9629460F4813
:1003E80001F046FA4FF400530793089409970A94CA
:1003F8000B9629460A4801F03BFA4FF4205307931D
:10040800089409970A940B962946064801F030FA91
:100418008EE700BF00800240000802400000024052
:1004280000040240001802402DE9F0438FB009ADE6
:10043800002409940A940B940C940D944F4B1A6B56
:1004480042F010021A631A6B02F010020192019A2C
:100458001A6B42F004021A631A6B02F00402029249
:10046800029A1A6B42F020021A631A6B02F02002F9
:100478000392039A1A6B42F080021A631A6B02F015
:1004880080020492049A1A6B42F001021A631A6BF2
:1004980002F001020592059A1A6B42F002021A63F1
:1004A8001A6B02F002020692069A1A6B42F00802D0
:1004B8001A631A6B02F008020792079A1A6B42F045
:1004C80040021A631B6B03F040030893089BDFF894
:1004D800BC9022461021484601F0D3FADFF8B080DC
:1004E800224644F28101404601F0CBFA244E2246CE
:1004F8004421304601F0C5FA42F2040309934FF44F
:1005080088130A930B9429461E4801F0B1F9102765
:1005180009970A940B9429461B4801F0A9F90997F1
:1005280001270A970B940C942946484601F0A0F934
:1005380044F2810309930A970B940C942946404688
:1005480001F096F9022309930A940B942946404630
:1005580001F08EF9442309930A970B940C942946C9
:10056800304601F085F9802309930A940B942946B3
:10057800304601F07DF90FB0BDE8F0830038024045
:100588000018024000080240001402400000024027
:1005980000040240042800D07047024B01221A7060
:1005A800FAE700BF5C02002072B6FEE710B594B00F
:1005B80007AC34220021204604F0E9FE0023029310
:1005C800039304930593069301F00EFB224B1A6CD8
:1005D80042F080521A641B6C03F080530093009B16
:1005E8001E4B1A6842F440421A601B6803F44043E9
:1005F8000193019B012307934FF4A023089302233F
:100608000D934FF480020E9204220F92C022109292
:100618001193082212921393204601F02DFEA8B9D7
:1006280001F0EAFAA0B90F230293022303930023EF
:1006380004934FF4A05305934FF480530693062177
:1006480002A802F0A9F828B914B010BDFFF7ACFF52
:10065800FFF7AAFFFFF7A8FF00380240007000402C
:1006680008B500F007FCFFF7A1FFFFF7DDFEFFF775
:10067800F9FD00F0C3F900F045FAFFF715FE00F0A8
:10068800D1FA00F031FB00F0B1F800F0CFF804F037
:10069800EFFC00221146082000F062FC082000F060
:1006A8006FFC642308220249024803F0C9FEFEE7F2
:1006B80000001E08540400202DE9F0438BB00023ED
:1006C800059306930793089309930268334B9A425C
:1006D80002D00BB0BDE8F083314B9A6B42F00202B6
:1006E8009A639A6B02F002020192019A1A6B42F025
:1006F80010021A631A6B02F010020292029A1A6B25
:1007080042F002021A631A6B02F002020392039A81
:100718001A6B42F008021A631B6B03F00803049378
:10072800049B0424059402270697032608964FF095
:100738000908CDF8248005AD29461A4801F098F833
:1007480005940697002407940896CDF82480DFF8CE
:100758005C902946484601F08BF84FF460530593A6
:10076800069707940896CDF8248029460E4801F08C
:100778007FF8402305930697079408960A23099360
:100788002946484601F074F8224621465C2000F0CC
:10079800E7FB5C2000F0F4FB9BE700BF001000A023
:1007A8000038024000100240000C024000040240E1
:1007B80010B590B002AC38220021204604F0E7FDC5
:1007C8006A46002300930193022307934FF0407376
:1007D8000B932146044801F06EFB08B910B010BD18
:1007E800FFF7E2FEFAE700BF6002002008B50D48F7
:1007F8000D4B036003234360042383601023C3600D
:100808001F2303614FF44073436100238361C36175
:10081800036201F0D9FC10B9FFF7CAFF08BDFFF762
:10082800C3FEF9E760020020001000A0054B064A4D
:100838001A6000225A609A60DA601A615A612E22A0
:100848009A6170476C030020002C01402DE9F04F9D
:10085800ADB0044600212791289129912A912B9126
:10086800902203A804F093FD22685C4B9A4202D0C0
:100878002DB0BDE8F08F4FF42003039303A802F0D6
:1008880067F8002840F0A080554B5A6C42F400628B
:100898005A645A6C02F400620092009A1A6B42F091
:1008A80004021A631A6B02F004020192019A1A6B8D
:1008B80042F008021A631B6B03F008030293029BC1
:1008C8004FF4706327934FF00209CDF8A0904FF0D2
:1008D800010BCDF8A4B003252A954FF00C08CDF8EC
:1008E800AC8027AF39463F4800F0C2FF4FF4805A2A
:1008F800CDF89CA0CDF8A090002629962A95CDF891
:10090800AC803946374800F0B3FF04232793CDF86D
:10091800A090CDF8A4B02A95CDF8AC8039463248DD
:1009280000F0A6FF3148324B03604FF0006343608C
:100938008660C6604FF480630361C0F814A04FF46A
:10094800804383612023C361066204234362856276
:100958004FF40003C3624FF40013036300F0AEFBCF
:10096800002834D1214B23649C632248224B036026
:100978004FF000634360402383600023C3604FF45B
:10098800806202614FF4805242614FF4804282617A
:100998002022C261036204234362032383624FF46B
:1009A8000003C3624FF40013036300F087FB88B9A8
:1009B800104BE3639C6300221146312000F0D0FA0B
:1009C800312000F0DDFA53E7FFF7EEFD5CE7FFF7B3
:1009D800EBFDC7E7FFF7E8FDEAE700BF002C0140A1
:1009E8000038024000080240000C02400C030020BE
:1009F80058640240AC020020A064024008B51148C7
:100A0800114B03604FF482734360002383604FF4FB
:100A1800E062C26002220261012242614FF4007268
:100A280082611022C2610362436283620722C2624A
:100A38000363436303F016F900B908BDFFF7B4FD7B
:100A4800FBE700BFF0030020003C004000B589B080
:100A58000023039304930593069307930268134BAB
:100A68009A4202D009B05DF804FB03F5FE331A6C14
:100A780042F400421A641A6C02F400420192019A8C
:100A88001A6B42F002021A631B6B03F00203029313
:100A9800029B38230393022304930323069306231C
:100AA800079303A9024800F0E3FEDBE7003C00409F
:100AB8000004024008B501221021024800F0E1FFBD
:100AC80008BD00BF0000024008B5002210210248FE
:100AD80000F0D7FF08BD00BF0000024008B50122A2
:100AE8000421024800F0CDFF08BD00BF00180240F5
:100AF80008B500220421024800F0C3FF08BD00BF6A
:100B08000018024030B583B0FFF7F2FF012000F073
:100B1800CFF9FFF7E3FF022000F0CAF9FFF7CAFF99
:100B280000238DF80730124C642301220DF10701D0
:100B3800204603F00BF9FFF7C7FF0E4D40F6B83318
:100B48004FF6FF722946204603F000F940F6B83305
:100B580041F25D620849204603F0F8F8FFF7AAFF62
:100B6800C82313222946204603F0F0F803B030BD0D
:100B7800F0030020C4560008C356010882B00A4B8F
:100B88001A6C42F080521A641A6C02F08052009279
:100B9800009A5A6C42F480425A645B6C03F48043B6
:100BA8000193019B02B0704700380240FEE7FEE760
:100BB800FEE7FEE7FEE770477047704708B500F0AC
:100BC80065F908BD08B5042000F062FF08BD000003
:100BD80008B5024802F036FE08BD00BF6C030020CD
:100BE80008B5024800F01EFB08BD00BF0C0300203A
:100BF80008B5024800F016FB08BD00BFAC02002093
:100C080008B5024801F0C4F908BD00BF6002002021
:100C1800034AD2F8883043F47003C2F8883070472A
:100C280000ED00E008B50B480B4B03604FF4E133CF
:100C3800436000238360C36003610C2242618361C7
:100C4800C3610362436203F0C1FC00B908BDFFF74A
:100C5800ABFCFBE7540400200048004010B5ACB0E2
:100C6800044600212791289129912A912B919022BD
:100C780003A804F08CFB2268184B9A4201D02CB0D0
:100C880010BD4FF48073039303A801F061FE10BBFD
:100C9800134B1A6C42F480221A641A6C02F48022F4
:100CA8000192019A1A6B42F008021A631B6B03F057
:100CB80008030293029B4FF440732793022328935F
:100CC8000023299303232A9307232B9327A9054855
:100CD80000F0CEFDD3E7FFF767FCD9E700480040F6
:100CE80000380240000C024008B50C484FF0A04301
:100CF8000360062303710222C271002383714272CA
:100D080001228272C37203738273C37300F0CEFE32
:100D180000B908BDFFF748FCFBE700BFDC04002072
:100D2800F0B5ADB0044600212791289129912A9168
:100D38002B91902203A804F02AFB2368B3F1A04F5B
:100D480001D02DB0F0BD4FF40013039303A801F0B8
:100D5800FFFD002836D11D4C236B43F001032363AC
:100D6800236B03F001030093009B4FF4E853279390
:100D7800022328930025299503232A930A232B93DA
:100D880027AF134E3946304600F072FD4FF400731A
:100D98002793289529953946304600F069FD636BFD
:100DA80043F080036363636B03F080030193019B4B
:100DB800636C43F480436364636C03F4804302937D
:100DC800029BBEE7FFF7F0FBC5E700BF0038024013
:100DD80000000240DFF834D0FFF71AFF0C480D4935
:100DE8000D4A002302E0D458C4500433C4188C427E
:100DF800F9D30A4A0A4C002301E013600432A242E4
:100E0800FBD304F0CDFAFFF72BFC70470000082055
:100E18000000002010000020646D0108500100202F
:100E2800DC090020FEE7000010B504460E4B1A78D6
:100E38004FF47A73B3FBF2F30C4A1068B0FBF3F08B
:100E480000F0ACF868B90F2C01D901200AE00022A3
:100E580021464FF0FF3000F083F8054B1C6000205E
:100E680000E0012010BD00BF0400002000000020A9
:100E78000800002008B5032000F060F80020FFF704
:100E8800D3FFFFF77BFE002008BD0000034A11686E
:100E9800034B1B780B441360704700BFBC0900204C
:100EA80004000020014B1868704700BFBC090020EF
:100EB80038B50446FFF7F6FF0546B4F1FF3F02D008
:100EC800044B1B781C44FFF7EDFF401BA042FAD3EC
:100ED80038BD00BF04000020002804DB0901C9B2A6
:100EE800044B1954704700F00F000901C9B2024BB6
:100EF8001954704700E400E014ED00E000B500F07C
:100F08000700C0F1070CBCF1040F28BF4FF0040C18
:100F1800031D062B0FD9C31E4FF0FF3E0EFA0CF02F
:100F280021EA000199400EFA03FE22EA0E0241EA84
:100F380002005DF804FB0023EEE700000649CB68D9
:100F480023F4E0631B041B0C000200F4E06003437D
:100F5800024A1A43CA60704700ED00E00000FA0533
:100F680010B50446054BD868C0F30220FFF7C6FF4A
:100F780001462046FFF7B0FF10BD00BF00ED00E0BE
:100F8800002807DB00F01F02400901239340024AB2
:100F980042F82030704700BF00E100E00138B0F1AE
:100FA800807F0BD24FF0E0235861054AF02182F888
:100FB80023100020986107221A61704701207047AA
:100FC80000ED00E030B405682C6824F480242C601F
:100FD800046863608368402B05D0036899600368E0
:100FE800DA6030BC704703689A600368D960F8E734
:100FF80010B40368D9B210390A4AA2FB0142120997
:10100800094CA25CC2655F2907D96FF30903043351
:101018008365806D5DF8044B70476FF30903836542
:10102800F7E700BFABAAAAAA386D0108836A8269EC
:1010380092B9012B0AD0022B02D00BB100207047C5
:10104800C36A13F0807F28D100207047C36AB3F1C8
:10105800C07F24D000207047B2F5005F09D0022B72
:1010680025D9032B25D1C36A13F0807F23D1002013
:101078007047032B03D8DFE803F01404140A002098
:101088007047C36A13F0807F0DD100207047C36A90
:10109800B3F1C07F09D000207047012070470120BC
:1010A80070470120704701207047012070470120D8
:1010B80070470020704701207047000070B5044653
:1010C800FFF7F0FE002C5CD00546022384F835308B
:1010D800002384F834302268136823F00103136076
:1010E80023681A6812F0010F0AD0FFF7DBFE431BD2
:1010F800052BF5D920236365032084F8350070BDDE
:101108001A68214911406268A0680243E0680243F6
:101118002069024360690243A0690243E06902430F
:10112800206A02430A43616A04291ED01A602668AD
:10113800756925F00705636A1D43042B07D1A36A67
:101148001D43E36A1BB12046FFF770FF90B9756134
:101158002046FFF74DFFE26D3F2393408360002058
:101168006065012384F83530C9E7E16A206B0143E3
:101178000A43DBE740236365002384F83530012008
:10118800BDE70120BBE700BF3F8010E038B504464B
:10119800856D90F8340001282FD0012084F83400A0
:1011A80094F83500012804D0002384F83430022054
:1011B80038BD022084F83500002060652046FFF71E
:1011C80001FFE26D3F239340AB602268136843F050
:1011D800160313602268536943F080035361236C3C
:1011E80023B12268136843F0080313602268136868
:1011F80043F0010313600020DAE70220D8E790F8F3
:101208003530022B03D08023436501207047052326
:1012180080F835300268136823F00103136000205A
:1012280070470000F0B583B0044600230193724B69
:101238001D68724BA3FB0535AD0A876D3E68C26D0C
:1012480008239340334210D003681A6812F0040F41
:101258000BD01A6822F004021A60C26D082393406A
:10126800BB60436D43F001034365E26D0123934086
:10127800334209D02268526912F0800F04D0BB6053
:10128800636D43F002036365E26D042393403342C8
:1012980009D02268126812F0020F04D0BB60636D97
:1012A80043F004036365E26D10239340334224D076
:1012B8002268126812F0080F1FD0BB6023681A68F2
:1012C80012F4802F0DD01B6813F4002F04D1236C67
:1012D8009BB12046984710E0A36C73B1204698470D
:1012E8000BE01A6812F4807F03D11A6822F0080212
:1012F8001A60236C0BB120469847E26D2023934077
:10130800334254D02268126812F0100F4FD0BB60DD
:1013180094F83530052B0ED023681A6812F4802F04
:1013280033D01B6813F4002F2AD1636C002B3ED0F6
:10133800204698473BE02268136823F016031360A1
:101348002268536923F080035361236CA3B1226898
:10135800136823F008031360E26D3F239340BB60DA
:10136800012384F83530002384F83430236D002BB2
:101378003FD0204698473CE0A36C002BE7D1EBE731
:10138800E36BA3B12046984711E01A6812F4807FF6
:1013980009D11A6822F010021A60012384F8353046
:1013A800002384F83430E36B0BB120469847636D13
:1013B800FBB1636D13F0010F17D0052384F83530A6
:1013C8002268136823F001031360019B0133019322
:1013D800AB4204D823681B6813F0010FF5D1012331
:1013E80084F83530002384F83430E36C0BB12046A0
:1013F800984703B0F0BD00BF00000020B5814E1B28
:10140800406D70475079137943EA002307480B5021
:10141800D07893781B0443EA0063507843EA0023AA
:1014280012781343024A8B50704700BF4080024035
:101438004480024030B4002208E0C468DC6051F8FF
:101448000C3043F4400341F80C300132032A1FD812
:10145800C16802EB82034FEAC30C01EBC30300240B
:1014680041F80C405C609C60DC60941D40F82430BE
:1014780051F80C4044F4801441F80C40022ADCD89E
:10148800541C04EB8404C56805EBC404DC60D6E78F
:1014980000238362C268036803F580531A6130BC75
:1014A800704710B4002202E00169D9600132032AB2
:1014B80028D8046902EB82034FEAC30C04EBC30388
:1014C800002144F80C1059609960D960196259627A
:1014D8004FF0004144F80C10416941F480415960D3
:1014E800596821F00041596002F1120140F8213099
:1014F800022AD9D80469511C01EB810104EBC1040B
:10150800DC60D3E70023C36503668366C36683652F
:101518000269036803F58053DA605DF8044B70478D
:1015280070B505460C46026813683C491940A37B10
:101538005B06207C002861D14FF400000343607CE7
:1015480000285DD14FF480000343A0680343E07F87
:1015580043EA004360690343A07F002852D14FF457
:1015680000500343207F43EA0033A06903432079F6
:1015780043EA802394F82000002845D14FF40070F6
:101588000343E07B43EAC013606A034394F82800EE
:1015980043EA00130B4313602B681E680120FFF712
:1015A80087FC2B681E6029688A6922F0BE02120433
:1015B800120CA36C1B0494F84C0038BB8020034326
:1015C800206D034394F85500012821D000200343DF
:1015D80094F8560001281DD00020034394F85400C5
:1015E800012819D00020034313438B612B689C69A1
:1015F8000120FFF75DFC2B689C6170BD00209DE712
:101608000020A1E70020ACE70020B9E70020D6E7DA
:101618000820DCE70420E0E70220E4E70F8120FD52
:1016280070B505460C46026802F580539B692B4944
:101638001940237B002B4DD14FF08063607B43EA38
:101648004063607F002847D14FF480100343A07B9C
:1016580043EA405360690343207F43EAC013A07FF5
:1016680043EA8013206A034394F8240043EA800382
:101678000B4302F5805293612B6803F580539E69F2
:101688000120FFF715FC2B6803F580539E61227932
:10169800A36843EA4263A26913432269134394F897
:1016A800252043EAC213A26A43EA8203226813434D
:1016B8002A6843F4000302F5805213602B6803F58F
:1016C80080531C680120FFF7F3FB2B6803F5805358
:1016D8001C6070BD0023B1E70020B7E7233FDEF8A8
:1016E80070B5A4B0064601258DF83C508DF83D50E4
:1016F80000240D948DF84B408DF84A508DF84840E1
:101708008DF83A508DF830508DF84C408DF83B40AC
:1017180014948DF854401D948DF878401F948DF8DA
:1017280082408DF880404FF4804310934FF400635B
:1017380011938DF881400BA9FFF7F2FE8DF80C503C
:101748008DF80D508DF81D508DF80E5005948DF8BC
:101758001C408DF81E4008948DF824508DF80450D4
:101768004FF4803302934FF4800306934FF40053F1
:1017780004938DF825500A94009469463046FFF783
:101788004FFF24B070BD0000002868D030B583B08A
:101798000446D0F88430002B32D0324B5A6C42F4D5
:1017A80080425A645B6C03F480430193019B2E4B87
:1017B8005A6822F400025A605A68A1680A435A60BB
:1017C8005B68236803F580531A6842F001021A60C7
:1017D800FFF768FB0546236803F580531B6813F081
:1017E800010F13D0FFF75EFB401BB0F5FA7FF2D96B
:1017F8000423C4F88830E023C4F8843001202CE0A6
:101808002023C0F88430FEF787FDC6E72046FFF79F
:1018180067FF2046FFF70EFE2046FFF742FE62688C
:1018280000212046FFF7EEFD2268D36B43F40273D4
:10183800D3632268D2F80C110C4B0B43C2F80C315D
:101848002268D2F8103143F40313C2F81031002093
:10185800C4F888001023C4F8843003B030BD0120D8
:10186800704700BF003802400038014060000200A5
:1018780000230F2B00F2F48070B582B066E0856813
:101888004FEA430E032404FA0EF425EA0405CC6853
:1018980004FA0EF42C438460446824EA02044A687B
:1018A800C2F300129A40224342605DE0DC0808342B
:1018B80050F8242003F00705AD004FF00F0E0EFA84
:1018C80005FE22EA0E0E0A69AA4042EA0E0240F814
:1018D80024205DE0092200E0002202FA0EF22A43E9
:1018E8000234604D45F824205F4A94686FEA0C0280
:1018F80024EA0C054E6816F4801F01D04CEA040552
:10190800594CA560E46802EA04054E6816F4001F05
:1019180001D04CEA0405544CE560646802EA040509
:101928004E6816F4003F01D04CEA04054E4C656041
:10193800246822404D6815F4803F01D04CEA040227
:10194800494C226001330F2B00F2888001229A4013
:101958000C6804EA020C32EA0404F3D14C6804F07F
:101968000304013C012C8AD94A6802F00302032AC5
:1019780009D0C4685D000322AA4024EA02048A68E8
:10198800AA402243C2604A6802F00302022A8DD0AC
:1019980004684FEA430E032202FA0EF224EA020414
:1019A8004A6802F0030202FA0EF2224302604A6811
:1019B80012F4403FC6D02D4A546C44F48044546419
:1019C800526C02F480420192019A9C08A51C254A97
:1019D80052F8255003F0030E4FEA8E0E0F2202FA3A
:1019E8000EF225EA0205224A90423FF475AF02F54D
:1019F8008062904222D002F58062904220D002F5A7
:101A0800806290421ED002F5806290421CD002F59E
:101A1800806290421AD002F58062904218D002F596
:101A28008062904216D002F58062904214D002F58E
:101A3800806290423FF44EAF0A224EE701224CE703
:101A480002224AE7032248E7042246E7052244E740
:101A5800062242E7072240E708223EE702B070BDAF
:101A6800704700BF00380140003C01400038024088
:101A7800000002400369194201D00120704700208C
:101A880070470AB18161704709048161704700009D
:101A980008B5054B5B69034200D108BD024B58618C
:101AA800FEF778FDF9E700BF003C014030B583B090
:101AB800002800F082800446056890F89534C3B188
:101AC800032384F89534B5F1A04F17D0206803F0AC
:101AD8006DF9237C8DF80030231D0ECB206803F0B0
:101AE80023F970B1022384F895340125284603B000
:101AF80030BD80F89434FFF713F9E1E70023A371B0
:101B0800E4E70021206803F081FA0246B8B90346E9
:101B18002079984218D903EBC30104EB8101012015
:101B280048750B75CB8500200876C861086203EB01
:101B3800C30104EB810148620133DBB2E8E7022309
:101B480084F895340125D1E7904217D902EBC203F6
:101B580004EB8303002183F8551283F8542283F899
:101B68005812C3F85C12C3F8601202EBC20304EB0C
:101B78008303C3F864120132D2B2E5E7237C8DF8FF
:101B88000030231D0ECB206803F066F9054658B9CE
:101B980000236374012384F89534237B012B08D038
:101BA800206803F021FAA1E7022384F8953401257F
:101BB8009CE7204600F004F8F2E7012596E70000CC
:101BC800034602680121C0F8D814002083F8CC0429
:101BD800936943F000639361516D024B0B43536566
:101BE800704700BF03000010024A136843F4807373
:101BF800136070470070004010B582B01B4B1A6C20
:101C080042F080521A641B6C03F080530193019BCD
:101C1800174A136843F480331360FFF743F9044607
:101C2800134B5B6813F4803F08D1FFF73BF9001BA7
:101C3800B0F57A7FF4D9032002B010BD0C4A1368BE
:101C480043F400331360FFF72DF90446084B5B6833
:101C580013F4003F07D1FFF725F9001BB0F57A7F91
:101C6800F4D90320E8E70020E6E700BF0038024087
:101C780000700040F0B44B6A33B1B2F1406F03D04A
:101C88008B6A0468013B23618C69002C75D00E6A4D
:101C9800002E3ED003688C68DC61CC69F4B1CB6A55
:101CA8000D6B2B434D6B2B434D6A2B434D6943EA18
:101CB80085430D692B430D6A2B43CD682B43234382
:101CC8008C6923430C682343046813436361B2F1AE
:101CD800406F1CD003684A689A6118E0CB6A0D6BA4
:101CE8002B434D6B2B434D6A2B434D6943EA854388
:101CF8000D692B430D6A2B4323438C6923430968E1
:101D08000B43016813434B61036800229A61F0BCDE
:101D18007047CD69D5B1CB6A0F6B3B434F6B3B43E3
:101D28004F6A3B434F6943EA87433343CE683343A3
:101D38002B4323430C682343046813436361B2F1C4
:101D4800406FE4D003684A689A61E0E7CB6A0F6B9A
:101D58003B434F6B3B434F6A3B434F6943EA8743DF
:101D68001E4345EA0603234309680B4301681343EE
:101D78004B61036800229A61C9E70D6A002D39D0CA
:101D880003688C68DC61CC69E4B1CB6A0D6B2B43CA
:101D98004D6B2B434D6A2B434D6943EA85430D69CF
:101DA8002B430D6A2B43CD682B4323438C69234374
:101DB800046813436361B2F1406FA8D003684A68AE
:101DC8009A61A4E7CB6A0D6B2B434D6B2B434D6A8D
:101DD8002B434D6943EA85430D692B430D6A2B4319
:101DE8001C438B691C43036814435C61036800222D
:101DF8009A618CE7CE69CEB1CB6A0F6B3B434F6BD0
:101E08003B434F6A3B434F6943EA87432B43CD68C3
:101E18002B4333432343046813436361B2F1406F98
:101E28003FF475AF03684A689A6170E7D1F824C037
:101E3800BCF1000F3FF46BAFCB6A0F6B3B434F6BAA
:101E48003B434CEA03074B6947EA83473D432E432C
:101E58003443036814435C61036800229A6156E7BF
:101E68002DE9F84305460F4616469946DDF82080C9
:101E78002B689C6804EA070CBCF1000C18BF4FF0F3
:101E8800010CB44514D0B8F1FF3FF1D0FFF70AF8C0
:101E9800A0EB0900404502D8B8F1000FE8D10423AF
:101EA80085F841306B6C43F001036B64012000E05E
:101EB8000020BDE8F883F0B583B004460E46154609
:101EC800FEF7F0FF94F84030012B39D0012384F855
:101ED800403094F84130012B06D00227002384F8C3
:101EE8004030384603B0F0BD00226264822384F893
:101EF8004130A36C0093034620212046FFF7B0FF32
:101F080007460028EAD12268136823F008036968A5
:101F18000B4313606B68082B06D04FF040623146C4
:101F28002046FFF7A7FED9E723682A681A632368C3
:101F38001022DA602268136843F480131360ECE718
:101F48000227CEE7704708B5806B00238363C3621E
:101F580090F84130082B0DD103680222DA6002683C
:101F6800136843F4003313600268136843F00203F4
:101F7800136008BD012380F84130FFF7E3FFF8E75D
:101F88007047704770477047704770477047000048
:101F980010B5044603689A68196812F0040F3DD01A
:101FA80011F4802F3AD090F84120122A11D090F8DD
:101FB8004120222A1FD02046FFF7E6FF10BD626AA3
:101FC800127883F82020626A01326262E26A013A7A
:101FD800E2622268916811F0040FECD0E16A0029EE
:101FE800EDD1136823F480231360E4E7136823F426
:101FF80080231360DFE72268916811F0040FDAD0BC
:10200800A16B0029F2D0226B93F820101170226B7B
:1020180001322263A26B013AA263ECE712F0020FCD
:1020280072D011F4003F6FD00222DA602268136880
:1020380023F4E023136094F84130122B1AD094F85B
:102048004130222B2CD094F84130022B51D094F8F7
:102058004130082BB2D12268536923F040635361A1
:10206800012384F84130636C002B49D12046FFF7E7
:1020780087FFA3E723681A6812F0040F09D01A68CB
:1020880022F004021A60E36B1A68136823F0010354
:102098001360012384F841302046FFF774FF8DE771
:1020A80021680B6813F0040F10D00B6823F00403A9
:1020B8000B60E36B1A68136823F0010313600123B4
:1020C80084F841302046FFF75DFF77E723689B6877
:1020D80013F47C5FF3D0A36B002BF0D0236B91F843
:1020E80020201A70236B01332363A36B013BA36386
:1020F800ECE7012384F841302046FFF742FF5DE713
:102108002046FFF71FFF59E712F0080F14D011F40B
:10211800002F11D00822DA6023681A6812F4800FA1
:1021280006D01A6822F410221A60012384F841307C
:102138002046FFF72AFF41E712F0010F31D011F4D2
:10214800803F2ED00122DA602268136823F47023BE
:102158001360636C43F00203636423681A6812F027
:10216800040F17D01A6822F004021A60E36B144AAD
:102178001A65E06BFFF743F800283FF41FAF636C64
:1021880043F004036364012384F841302046FFF7D9
:10219800D9FE13E7012384F841302046FFF7D2FE29
:1021A8000CE712F0100F3FF409AF11F4801F3FF451
:1021B80005AF1022DA602046FFF7E8FEFEE600BF12
:1021C8004F1F00088164704770B582B00446FEF75F
:1021D80069FE002C4AD0064694F84130002B3AD0CC
:1021E80025682A6822F4F852A168013942EA0122D6
:1021F8002A60A36C00933346002220212046FFF773
:102208002FFE18BB21680B68194A1A406568E368F5
:1022180043EA0563E5692B43256A2B431A430A60A1
:1022280021684A68134B13402569626942EA0542EE
:10223800A5692A4313434B602268136843F00103DE
:10224800136000236364012384F84130002384F879
:10225800403002B070BD84F840302046FEF72CFABA
:1022680041F288312046FFF7ADFFB9E70120F0E7DA
:102278002FFFFF00FEF8E0FF002800F0068270B58F
:1022880082B00446036813F0010F29D0954B9B6870
:1022980003F00C03042B1AD0924B9B6803F00C0339
:1022A800082B0FD06368B3F5803F40D0002B54D182
:1022B8008C4B1A6822F480321A601A6822F4802241
:1022C8001A6039E0874B5B6813F4800FEAD0854BBE
:1022D8001B6813F4003F03D06368002B00F0D7811C
:1022E800236813F0020F74D07E4B9B6813F00C0F19
:1022F8005ED07C4B9B6803F00C03082B53D0E3683B
:10230800002B00F08980774A136843F001031360BB
:10231800FEF7C8FD0546734B1B6813F0020F72D118
:10232800FEF7C0FD401B0228F5D90320B4E16D4A31
:10233800136843F48033136063682BB3FEF7B2FD70
:102348000546684B1B6813F4003FC9D1FEF7AAFD88
:10235800401B6428F5D903209EE1B3F5A02F09D0CE
:10236800604B1A6822F480321A601A6822F48022BC
:102378001A60E1E75B4B1A6842F480221A601A6817
:1023880042F480321A60D7E7FEF78CFD0546554BBC
:102398001B6813F4003FA3D0FEF784FD401B64289C
:1023A800F5D9032078E14F4B5B6813F4800FA6D171
:1023B8004C4B1B6813F0020F03D0E368012B40F06D
:1023C8006881484A136823F0F803216943EAC10386
:1023D8001360236813F0080F46D0636983B3414A3A
:1023E800536F43F001035367FEF75CFD05463D4B11
:1023F8005B6F13F0020F37D1FEF754FD401B022824
:10240800F5D9032048E1374A136823F0F803216916
:1024180043EAC1031360DCE7324A136823F001037F
:102428001360FEF73FFD05462E4B1B6813F0020FA5
:10243800CFD0FEF737FD401B0228F5D903202BE14A
:10244800284A536F23F001035367FEF72BFD054617
:10245800244B5B6F13F0020F06D0FEF723FD401BE1
:102468000228F5D9032017E1236813F0040F7DD063
:102478001C4B1B6C13F0805F1ED11A4B1A6C42F078
:1024880080521A641B6C03F080530193019B012551
:10249800154B1B6813F4807F10D0A368012B25D03F
:1024A800002B3BD10F4B1A6F22F001021A671A6FEB
:1024B80022F004021A671EE00025E9E70A4A1368B9
:1024C80043F480731360FEF7EDFC0646064B1B6869
:1024D80013F4807FE1D1FEF7E5FC801B6428F5D971
:1024E8000320D9E00038024000700040724A136FA0
:1024F80043F001031367A36833B3FEF7D3FC064622
:102508006D4B1B6F13F0020F2FD1FEF7CBFC801B16
:1025180041F288339842F3D90320BDE0052B09D056
:10252800654B1A6F22F001021A671A6F22F0040233
:102538001A67E0E7604B1A6F42F004021A671A6FD5
:1025480042F001021A67D6E7FEF7ACFC06465A4B82
:102558001B6F13F0020F08D0FEF7A4FC801B41F29A
:1025680088339842F3D9032096E0FDB9A369002B7C
:1025780000F09180504A926802F00C02082A59D063
:10258800022B19D04C4A136823F080731360FEF7AE
:1025980089FC0446484B1B6813F0007F48D0FEF7BF
:1025A80081FC001B0228F5D9032075E0424A136C10
:1025B80023F080531364D9E73F4A136823F08073EC
:1025C8001360FEF76FFC05463B4B1B6813F0007F5A
:1025D80006D0FEF767FC401B0228F5D903205BE014
:1025E800E369226A1343626A43EA8213A26A5208C1
:1025F800013A43EA0243E26A43EA0263226B43EA8E
:1026080002732D4A5360136843F080731360FEF71A
:1026180049FC0446284B1B6813F0007F06D1FEF7DF
:1026280041FC001B0228F5D9032035E0002033E0E7
:10263800002031E0204A5268012B2FD002F4800399
:10264800E1698B422CD102F03F03216A8B4229D1E8
:10265800616A47F6C0731340B3EB811F24D102F4BB
:102668004031A36A5B08013BB1EB034F1ED102F076
:102678007063E16AB3EB016F1AD102F0E042236B99
:10268800B2EB037F16D1002006E00120704701203D
:1026980002E0012000E0002002B070BD0120FBE74D
:1026A8000120F9E70120F7E70120F5E70120F3E72A
:1026B8000120F1E70120EFE70038024008B5334B6D
:1026C8009B6803F00C03042B5BD0082B5BD12F4BCA
:1026D8005A6802F03F025B6813F4800F2CD02B4B32
:1026E8005868C0F388104FEA401CBCEB000C6EEB36
:1026F8000E0E4FEA8E1343EA9C634FEA8C11B1EB3E
:102708000C0163EB0E03DB0043EA5173C90011EBC4
:10271800000C43F10003590200234FEA4C2041EA20
:10272800DC51FDF765FD194B5B68C3F301430133C9
:102738005B00B0FBF3F008BD144B5868C0F3881079
:102748004FEA401CBCEB000C6EEB0E0E4FEA8E13EA
:1027580043EA9C634FEA8C11B1EB0C0163EB0E0367
:10276800DB0043EA5173C90011EB000C43F100038D
:10277800990200234FEA8C2041EA9C51FDF738FD6D
:10278800D1E70348D7E70348D5E700BF0038024040
:1027980000127A000024F400002800F0A08070B530
:1027A8000D460446524B1B6803F00F038B420BD2B5
:1027B8004F4A136823F00F030B431360136803F0A9
:1027C8000F038B4240F08D80236813F0020F17D05F
:1027D80013F0040F04D0474A936843F4E05393601E
:1027E800236813F0080F04D0424A936843F4604307
:1027F8009360404A936823F0F003A1680B43936009
:10280800236813F0010F31D06368012B20D0022B0D
:1028180025D0384A126812F0020F64D035498A6808
:1028280022F0030213438B60FEF73CFB0646314B54
:102838009B6803F00C036268B3EB820F16D0FEF7B7
:1028480031FB801B41F288339842F0D9032045E0E0
:10285800284A126812F4003FE0D101203EE0254AE0
:10286800126812F0007FD9D1012037E0204B1B6895
:1028780003F00F03AB420AD91D4A136823F00F0374
:102888002B431360136803F00F03AB422DD1236869
:1028980013F0040F06D0174A936823F4E053E16855
:1028A8000B439360236813F0080F07D0114A93680D
:1028B80023F46043216943EAC1039360FFF7FEFEF6
:1028C8000C4B9B68C3F303130B4AD35CD8400B4BE8
:1028D80018600B4B1868FEF7A7FA002070BD01209E
:1028E80070470120FAE70120F8E70120F6E700BF6A
:1028F800003C024000380240286D0108000000201A
:1029080008000020014B1868704700BF0000002035
:1029180008B5FFF7F7FF044B9B68C3F38223034A0C
:10292800D35CD84008BD00BF00380240206D0108C4
:1029380008B5FFF7E7FF044B9B68C3F34233034A2C
:10294800D35CD84008BD00BF00380240206D0108A4
:10295800F0B583B00446066816F001060DD0B54BF5
:102968009A6822F400029A609A68416B0A439A6056
:10297800436B002B00F067810026256815F40025BD
:1029880011D0AC4AD2F88C3023F44013E16B0B43DE
:10299800C2F88C30E36BB3F5801F00F05681002B32
:1029A80000F055810025236813F4801F0FD0A14A39
:1029B800D2F88C3023F44003216C0B43C2F88C30DE
:1029C800236CB3F5800F00F0448103B90125236817
:1029D80013F0807F00D0012613F0200F40F03B81D8
:1029E800236813F0100F0CD0924BD3F88C2022F0F0
:1029F8008072C3F88C20D3F88C20A16B0A43C3F8EB
:102A08008C20236813F4804F08D08A4AD2F890307B
:102A180023F44033616E0B43C2F89030236813F4FB
:102A2800004F08D0834AD2F8903023F44023A16E97
:102A38000B43C2F89030236813F4803F08D07D4AD6
:102A4800D2F8903023F44013E16E0B43C2F8903073
:102A5800236813F4003F08D0764AD2F8903023F464
:102A68004003216F0B43C2F89030236813F0400FE6
:102A780008D0704AD2F8903023F00303616C0B43FE
:102A8800C2F89030236813F0800F08D0694AD2F852
:102A9800903023F00C03A16C0B43C2F890302368EC
:102AA80013F4807F08D0634AD2F8903023F03003C3
:102AB800E16C0B43C2F89030236813F4007F08D010
:102AC8005C4AD2F8903023F0C003216D0B43C2F862
:102AD8009030236813F4806F08D0564AD2F89030AB
:102AE80023F44073616D0B43C2F89030236813F4EC
:102AF800006F08D04F4AD2F8903023F44063A16D9C
:102B08000B43C2F89030236813F4805F08D0494A19
:102B1800D2F8903023F44053E16D0B43C2F8903063
:102B2800236813F4005F08D0424AD2F8903023F4A7
:102B38004043216E0B43C2F89030236813F4800F92
:102B480008D03C4AD2F8903023F08063A16F0B4341
:102B5800C2F89030236813F4001F0DD0354AD2F81C
:102B6800903023F00063E16F0B43C2F89030E36FBD
:102B7800B3F1006F00F0D580236813F0080F00D080
:102B8800012513F4802F08D02A4AD2F8903023F078
:102B98004073616F0B43C2F89030236813F4000F41
:102BA80009D0244AD2F8903023F08053D4F880100A
:102BB8000B43C2F89030236813F0806F09D01D4A88
:102BC800D2F8903023F00053D4F884100B43C2F8A5
:102BD8009030236813F0006F09D0164AD2F88C3071
:102BE80023F00073D4F888100B43C2F88C302368A4
:102BF80013F0805F09D00F4AD2F88C3023F080633D
:102C0800D4F88C100B43C2F88C3026B9236813F023
:102C1800007F00F00681074A136823F08063136081
:102C2800FEF740F90646034B1B6813F0006F7AD095
:102C380002E000BF00380240FEF734F9801B642828
:102C4800F1D90320F0E0012697E60126A7E6012541
:102C5800A9E60126B9E67F4B1A6C42F080521A6445
:102C68001B6C03F080530193019B7B4A136843F468
:102C780080731360FEF716F90746774B1B6813F449
:102C8800807F06D1FEF70EF9C01B6428F5D9032012
:102C9800CAE0704B1B6F13F4407315D0226B02F41B
:102CA80040729A4210D06B4B1A6F22F44072196F1F
:102CB80041F480311967196F21F4803119671A6757
:102CC8001B6F13F0010F12D1236B03F44072B2F59E
:102CD800407F1DD05F4A936823F4F81393605D49E1
:102CE8000B6F226BC2F30B0213430B6778E6FEF7F8
:102CF800D9F80746574B1B6F13F0020FE4D1FEF7C4
:102D0800D1F8C01B41F288339842F3D903208BE0F5
:102D18005048826822F4F812504919400A438260E8
:102D2800DDE7012528E7236813F0010F13D0636B53
:102D38008BB9484AD2F88430D2F88410606803F41A
:102D4800403343EA801301F070610B43A16843EA02
:102D58000173C2F88430236813F4002F03D0E26BA8
:102D6800B2F5801F06D013F4801F1ED0236CB3F574
:102D7800800F1AD1374AD2F88430D2F884106068AC
:102D880003F4403343EA8013E06843EA006301F048
:102D9800E0410B43C2F88430D2F88C3023F01F0393
:102DA800616A01390B43C2F88C30236813F0807FC5
:102DB80011D0284AD2F88400D2F8841066682369B2
:102DC8001B0443EA861300F07060034301F0E041FE
:102DD8000B43C2F88430236813F0007F0DD062687B
:102DE80023691B0443EA8213E26843EA0263A26888
:102DF80043EA0273174AC2F88430164A136843F04C
:102E080080631360FEF74EF80646124B1B6813F0FA
:102E1800006F06D1FEF746F8801B6428F5D9032019
:102E280002E0012D02D0002003B0F0BD094A13686A
:102E380023F080531360FEF735F80546054B1B68F1
:102E480013F0005F0CD0FEF72DF8401B6428F5D96D
:102E58000320E9E70038024000700040FFFCFF0F44
:102E6800236813F4002F01D0E26B22B113F4801F02
:102E78001DD0236CDBB9354AD2F88830D2F88810D7
:102E8800606903F4403343EA8013A06943EA0063AE
:102E980001F0E0410B43C2F88830D2F88C3023F4BB
:102EA800F853A16A013943EA0123C2F88C30236838
:102EB80013F4001F03D0E36FB3F1006F31D0236820
:102EC80013F0080F19D0214AD2F88810D2F88830A8
:102ED800606903F4403343EA801301F070610B43E7
:102EE800E16943EA0173C2F88830D2F88C3023F4E0
:102EF8004033E16A0B43C2F88C30144A136843F03C
:102F080080531360FDF7CEFF0446104B1B6813F087
:102F1800005F19D1FDF7C6FF001B6428F5D903200F
:102F280082E70A4AD2F88800D2F888106569236ACD
:102F38001B0443EA851300F07060034301F0E0418D
:102F48000B43C2F88830BAE700206DE7003802402A
:102F5800836B1A68D36B43F48073D36370470000A4
:102F680070B582B0044600230193006801F0CEFBDF
:102F7800054610B1284602B070BD206801F090FEE9
:102F880038B90123A364A36C012B0BD02E46284625
:102F980014E00023A364206801F0B8FB0028F2D0F5
:102FA8000546E7E70021206801F018FD0028EDD06C
:102FB8004FF08055DEE7019B01330193019A4FF6EC
:102FC800FE739A4213D896B90021206801F006FDD5
:102FD800E0B91249206801F0AFFD0646C0B90021EA
:102FE800206801F07EFBC30FE5D01E46E3E7019A97
:102FF8004FF6FE739A420ED810F0804302D0012398
:103008006364B7E7002262641D46B3E70546B1E78B
:103018004FF08055AEE74FF08075ABE7000010C168
:10302800F8B5846AC66AA6B9F8BD386801F036FBF7
:103038002070C0F307236370C0F30743A370000E2A
:10304800E0700434043E0135072DEED9BC62FE62FF
:10305800EAE707460025F7E7F0B583B0046A466A51
:10306800DEB903B0F0BD23780193627843EA022306
:103078000193A27843EA02430193E27843EA0263A8
:1030880001930434043E01A9386801F00AFB0135B4
:10309800072DE8D93C627E62E3E707460025F7E79B
:1030A80070B581B104460E46016D0904006801F04F
:1030B800ADFC054608B1284670BD0021206801F026
:1030C80010FB3060F7E74FF00065F4E72DE9F043B7
:1030D80087B0044691B116461F460A4690F8340058
:1030E800C5B201287FD10023A363F019E36D98428C
:1030F8000AD9A36B43F00073A36375E0836B43F0B5
:103108000063836301256FE0032384F8343021686A
:103118000023CB622068C16B41F49571C163216CB7
:103128003448C863216C3448C864216C0B65216C31
:103138008B60206C01680B6823F0C0038068034330
:103148000B6021684FEA47294FEA99038031206CC8
:10315800FEF71CF8804600282ED12268D36A43F077
:103168000803D362636C012B00D076024FF0FF3363
:103178000093CDF804909023029302230393002335
:103188000493012305936946206801F0ADFA012FE5
:1031980022D9822323633146206801F0A5FB38B386
:1031A8002368164A9A63A36B0343A363012384F835
:1031B80034300023236317E02268D36B23F495731C
:1031C800D36323680D4A9A63A36B43F08043A363D8
:1031D800012384F8343007E08123236331462068D3
:1031E80001F06AFBDBE70225284607B0BDE8F0835B
:1031F8004546F9E73B3300085D370008FF05400006
:10320800F0B587B00446002939D01D460F4690F81E
:103218003430DEB2012B40F08180002383635319E0
:10322800C16D8B4231D8032380F834300368002104
:10323800D9620068C36B43F01A03C363E36B394870
:10324800D863E36B3848D864E36B1965636C012B6A
:1032580000D05202012D1DD9A023236311462068F6
:1032680001F072FBE8B12368304A9A63A36B034309
:10327800A363012384F83430002323634FE0836B76
:1032880043F000638363012649E0836B43F00073D6
:10329800836344E0902323631146206801F03CFBDC
:1032A800E0E72268D36A43F00803D362E36B402265
:1032B8009A60E16B0A68136823F0C00389680B43BE
:1032C800136022686D02AB0880323946E06BFDF767
:1032D8005DFF074688B12268D36B23F01A03D363D6
:1032E8002368124A9A63A36B43F08043A3630123C4
:1032F80084F834300023236311E04FF0FF33009348
:1033080001959023029300230393049301230593CB
:103318006946206801F0E8F93E4600E0022630469A
:1033280007B0F0BD592F00085D370008FF054000C1
:10333800704710B5846B236B822B11D02268D36A37
:1033480023F00803D362236840F23A529A630123B8
:1033580084F8343000232363204601F0CAFE10BDF0
:10336800206801F009FB03460028E7D0A26B13434D
:10337800A3632046FFF7DCFFE0E700000346426E48
:10338800920F0A70426EC2F383624A7090F8672007
:1033980002F003028A7090F86620CA7090F86520DF
:1033A8000A7190F864204A71826E120DCA80B0F8D2
:1033B8006A2002F00F020A72826EC2F3C0324A72A9
:1033C800826EC2F380328A72826EC2F34032CA724F
:1033D800826EC2F300320A7300224A73426C002ADA
:1033E80040F08680806E40F6FC7202EA8002D86E59
:1033F80042EA90720A61DA6EC2F3C2620A7593F801
:103408006F2002F007024A75DA6EC2F342528A75DB
:10341800DA6EC2F38242CA75DA6EC2F3C2320A7633
:103428000A6901325A65087E00F0070002308240BE
:103438005A6591F808C00CF00F0C012000FA0CF046
:103448009865400A00FB02F2DA654FF400721A66CA
:10345800DA6EC2F380324A76DA6EC2F3C6128A7620
:10346800DA6E02F07F02CA761A6FD20F0A771A6FE5
:10347800C2F341724A771A6FC2F382628A771A6F6F
:10348800C2F38352CA771A6FC2F3405281F82020E0
:10349800002081F82100B3F8722002F0010281F8BF
:1034A80022201A6FC2F3C03281F823201A6FC2F3A8
:1034B800803281F824201A6FC2F3403281F8252027
:1034C8001A6FC2F3003281F826201A6FC2F38122E4
:1034D80081F827201A6FC2F3012281F828201B6F78
:1034E800C3F3460381F82930012381F82A30704755
:1034F800012A11D1826E120402F47C12B0F86E0017
:1035080002430A610A69013292025A65DA654FF488
:1035180000729A651A669BE7026805499163826B97
:1035280042F080528263012083F83400704700BF64
:10353800FF05400070B590B004460123ADF8123085
:10354800006801F0B7F800286CD0636C032B45D1F4
:10355800636C032B5DD1636C032B1DD0BDF8121077
:1035680021650904206801F0ACFA054600285BD102
:103578000021206801F0B5F860660421206801F098
:10358800B0F8A0660821206801F0ABF8E0660C21CD
:10359800206801F0A6F820670421206801F0A1F84E
:1035A800000DE06405A92046FFF7E8FE00283ED19B
:1035B800226D12040023206801F0F8F9054698BB33
:1035C800234653F8106B93E807008DE8070004348E
:1035D80094E80E00304601F047F825E0206801F035
:1035E8005BFA054600BB0021206801F07AF86067A5
:1035F8000421206801F075F8A0670821206801F00F
:1036080070F8E0670C21206801F06BF8C4F88000BE
:103618009EE70DF11201206801F0F8FA054600282E
:1036280099D001E04FF08065284610B070BD4FF08A
:103638008055F9E710B58AB0044600230493059332
:10364800069307930893762309930AAB13E90700B7
:103658008DE8070004AB0ECB206801F005F822685E
:10366800536823F480735360206801F01FF82268C0
:10367800536843F4807353600220FDF719FC204619
:10368800FFF76EFC40B10246012084F83400A36BBA
:103698001343A3630AB010BD2046FFF74BFF024651
:1036A80030B1012084F83400A36B1343A363F1E71E
:1036B8004FF40071206801F0E7F808B90020E9E745
:1036C800236804499963A36B0343A363012084F827
:1036D8003400DFE7FF054000A8B110B5044690F8B4
:1036E800343063B1032384F834302046FFF7A2FF57
:1036F80058B9A0632063012384F8343010BD0377E0
:10370800FDF7A4F8EEE7012070470120F6E7436CC7
:103718000B60836C4B60C36C8B60036DCB60436D37
:103728000B61836D4B61C36D8B61036ECB610020B0
:10373800704710B582B004460023019301A9FFF732
:10374800AFFC10B1A36B0343A3630198C0F34320FC
:1037580002B010BD10B5846BFDF752FE02280AD0E6
:10376800236C5A6DE36B5B6D012B18BF012A03D0E4
:103778002046FFF7DDFD10BD23680F4A9A632268D3
:10378800D36B23F49D73D363A36B43F08043A3638C
:103798002046FFF7CEFF0538012805D9012384F814
:1037A800343000232363E3E7206801F0E5F8A36BD6
:1037B8000343A363F2E700BFFF05400010B5846B25
:1037C800236840F23A529A632046FFF7B2FF01237A
:1037D80084F83430002323630538012805D9A36B06
:1037E80053B9204601F07DFC10BD206801F0C4F8F3
:1037F800A36B0343A363F2E72046FFF799FDF3E7C2
:1038080010B5846B236840F23A529A632046FFF75A
:1038180090FF012384F834300023236305380128FE
:1038280005D9A36B53B9204601F05BFC10BD206895
:1038380001F0A2F8A36B0343A363F2E72046FFF766
:1038480077FDF3E738B50446056B03685A6B12F445
:10385800004F02D015F0080F26D15A6B12F4807F62
:1038680058D04FF480729A632268D16B644B0B4036
:10387800D3632268D36A23F00103D36215F0080FDB
:1038880026D015F0220F12D1236840F23A529A63DB
:10389800012384F834300023236315F0030F13D079
:1038A800204601F026FC01E0FFF7BAFB38BD20688E
:1038B80001F062F803460028E6D0A26B1343A36325
:1038C8002046FFF735FDDFE7204601F00EFCEDE767
:1038D80015F0800FEAD015F0200F0ED115F0030F68
:1038E800E4D12268D36A23F00803D362012384F861
:1038F8003430204601F0F9FBD8E7206801F03CF8A5
:1039080003460028EAD0A26B1343A3632046FFF7BF
:103918000FFDE3E75A6B12F4804F02D015F0080F41
:103928004AD15A6B12F03A0FC0D05A6B12F0020FFC
:1039380003D0A26B42F00202A2635A6B12F0080F86
:1039480003D0A26B42F00802A2635A6B12F0200F58
:1039580003D0A26B42F02002A2635A6B12F0100F40
:1039680003D0A26B42F01002A26340F23A529A636B
:103978002268D36B23F49D73D363206800F0FCFFA7
:10398800A36B0343A36315F0080F19D115F0800F3B
:103998008CD015F0300F1CD115F0030F26D0236CF6
:1039A800184A1A65206CFDF72AFC00283FF47EAF00
:1039B800206CFFF725FF79E72046FFF74DFB75E7F9
:1039C800012384F83430002323632046FFF7B0FC3A
:1039D8006CE7E36B0C4A1A65E06BFDF710FC0028F6
:1039E8003FF464AFE06BFFF7E9FE5FE70023A363F2
:1039F800012284F834202363204601F072FB55E746
:103A0800C53EFFFF09380008C53700082DE9F04713
:103A180082B00546884617461E46FDF743FA0A9BBC
:103A28001B1A03EB0609FDF73DFA8246284B1B6873
:103A3800C3F3CB3309FB03F301932B689C6838EA83
:103A480004040CBF01230023BB423DD0B6F1FF3F65
:103A5800F3D0FDF727FAA0EB0A00484503D2019BF3
:103A680073BB9946E9E72A68536823F0E00353607B
:103A78006B68B3F5827F0BD0AB6AB3F5005F14D0E7
:103A8800012385F85D30002385F85C3003201CE0B5
:103A9800AB68B3F5806F18BFB3F5004FECD12A6857
:103AA800136823F040031360E6E72A68136823F4D9
:103AB800005313602A68136843F400531360DFE768
:103AC800019B013B0193B8E7002002B0BDE8F087F5
:103AD800000000202DE9F04782B006460D46144646
:103AE8001F4600238DF80330FDF7DCF90A9B1B1AEB
:103AF80003EB0709FDF7D6F98246D6F80080304B6C
:103B08001B6803EB8303C3EBC3031B0D09FB03F320
:103B1800019302E0B7F1FF3F12D133689B6803EAD3
:103B2800050CA44547D0B5F5C06F08BF002CF1D1EE
:103B380098F80C30DBB28DF803309DF80330E9E7D4
:103B4800FDF7B0F9A0EB0A00484503D2019B73BB0F
:103B58009946E2E73268536823F0E00353607368DC
:103B6800B3F5827F0BD0B36AB3F5005F14D001239D
:103B780086F85D30002386F85C3003201CE0B368CB
:103B8800B3F5806F18BFB3F5004FECD132681368F6
:103B980023F040031360E6E73268136823F4005308
:103BA80013603268136843F400531360DFE7019B26
:103BB800013B0193B1E7002002B0BDE8F08700BFE8
:103BC8000000002070B584B004460D4616460092E9
:103BD8000B4600224FF4C051FFF77CFF18BB1F4B68
:103BE8001B681F4AA2FB03235B0D4FF47A7202FB8A
:103BF80003F303936368B3F5827F1AD0039B3BB149
:103C0800039B013B039323689B6813F0800FF5D156
:103C180000962B4600224FF4C0612046FFF75AFF5A
:103C2800B0B904B070BD236E43F0200323660320AF
:103C3800F7E700962B46002280212046FFF7E6FE94
:103C48000028E5D0236E43F0200323660320E8E72D
:103C5800236E43F0200323660320E2E700000020E0
:103C6800819F5E1600286FD010B50446436A33B9A9
:103C78004368B3F5827F05D00023C36102E00023C7
:103C8800036143610023A36294F85D30002B52D096
:103C9800022384F85D302268136823F04003136020
:103CA800E368B3F5E06F4CD90022B3F5706F18BF25
:103CB800B3F5E06F01D00023A362636803F4827355
:103CC800A16801F404410B43216901F002010B438F
:103CD800616901F001010B43A16901F400710B4313
:103CE800E16901F038010B43216A01F080010B43BF
:103CF800A16A01F4005120680B430360638B03F051
:103D08000403616A01F010010B43616B01F00801C3
:103D18000B43E16801F470610B43216813434B6066
:103D28002268D36923F40063D3610020206601234D
:103D380084F85D3010BD84F85C302046FCF786FEC0
:103D4800A6E74FF48052B0E7012070472DE9F04311
:103D580083B00446894690461D46FDF7A3F894F8BB
:103D68005D30012B40F0EF800646DFB2B8F1000F5E
:103D780018BFB9F1000F00F0E78094F85C30012B10
:103D880000F0E680012384F85C30032384F85D307A
:103D980000232366C4F83890A4F83C80A4F83E8039
:103DA8002364A4F84430A4F846302365E364A36888
:103DB800B3F5004F1ED023681A6812F0400F03D1E4
:103DC8001A6842F040021A60E368B3F5E06F47D919
:103DD800636813B1B8F1010F27D1A26B2368128869
:103DE800DA60A36B0233A363E38F9BB2013B9BB200
:103DF800E3871AE02268136823F0400313602268FF
:103E0800136843F480431360D5E7A26B1288DA6025
:103E1800A36B0233A363B4F83EC01FFA8CFC0CF109
:103E2800FF3C1FFA8CFCA4F83EC0E38F9BB2002B2A
:103E38006ED023689A6812F0020FE6D1FDF732F8C7
:103E4800801BA84202D3B5F1FF3F01D1002DECD170
:103E5800012384F85D30002384F85C30032773E085
:103E6800636813B1B8F1010F32D1E38F9BB2012B14
:103E78000CD9A26B23681288DA60A36B0233A363A0
:103E8800E38F9BB2023B9BB2E38721E0A26B2368DE
:103E980012781A73A36B0133A363E38F9BB2013BC0
:103EA8009BB2E38714E0A36B1B781373A36B0133F6
:103EB800A363E38F9BB2013B9BB2E38708E0FCF767
:103EC800F1FF801BA84202D3B5F1FF3F18D1BDB165
:103ED800E38F9BB2E3B12268936813F0020FEED030
:103EE800E38F9BB2012BDED9A36B1B88D360A36B36
:103EF8000233A363E38F9BB2023B9BB2E387E7E7FE
:103F0800012384F85D30002384F85C3003271BE02C
:103F1800324629462046FFF755FE08B1202323667E
:103F2800A36833B901932368DA6801929B68019307
:103F3800019B012384F85D30002384F85C30236EF4
:103F480013B9002700E00227384603B0BDE8F08324
:103F58000227F9E7026852E8003F23F4907342E829
:103F680000310029F6D1026802F1080353E8003F46
:103F780023F00103083242E800310029F3D1036E2F
:103F8800012B06D02023C0F8803000230366836607
:103F98007047026852E8003F23F0100342E80031FE
:103FA8000029F6D1EEE7000010B5044683680269DF
:103FB800134342691343C269134301680868914A6D
:103FC80002401A430A602268536823F44053E168A8
:103FD8000B435360A269236A1A4321688B6823F450
:103FE800306313438B602368874A934218D0874A0B
:103FF800934228D0864A93424FD0864A93425ED055
:10400800854A93426DD0854A93427FD0844A934231
:1040180000F09180834A934200F0A280102329E0A7
:10402800814BD3F8903003F00303032B09D8DFE862
:1040380003F00204AB0601231CE004231AE0082362
:1040480018E0102316E0784BD3F8903003F00C03F7
:104058000C2B0ED8DFE803F0070D0D0D090D0D0D23
:104068009A0D0D0D0B00002304E0042302E0082341
:1040780000E01023E069B0F5004F00F0B980082B8C
:1040880000F21A81DFE813F0F6000901F4001801C4
:104098000C011801180118010F01634BD3F8903077
:1040A80003F03003202B73D005D8002B72D0102BCF
:1040B80072D10423DEE7302B70D10823DAE75A4B9C
:1040C800D3F8903003F0C003802B69D005D8002BBB
:1040D80068D0402B68D10423CCE7C02B66D10823D5
:1040E800C8E7514BD3F8903003F44073B3F5007F21
:1040F8005ED006D8002B5DD0B3F5807F5CD1042359
:10410800B8E7B3F5407F59D10823B3E7464BD3F856
:10411800903003F44063B3F5006F51D006D8002BFC
:1041280050D0B3F5806F4FD10423A3E7B3F5406FA8
:104138004CD108239EE73C4BD3F8903003F440530E
:10414800B3F5005F44D006D8002B43D0B3F5805FA9
:1041580042D104238EE7B3F5405F3FD1082389E7B6
:10416800314BD3F8903003F44043B3F5004F37D0C8
:1041780005D8BBB3B3F5804F36D104237AE7B3F53E
:10418800404F33D1082375E7022373E7022371E711
:1041980002236FE700236DE710236BE7102369E71D
:1041A800022367E7002365E7102363E7102361E72D
:1041B80002235FE700235DE710235BE7102359E73D
:1041C800022357E7012355E7102353E7102351E74C
:1041D80002234FE700234DE710234BE7102349E75D
:1041E800022347E7002345E7102343E7102341E76D
:1041F800082B5BD8DFE803F01A343A5A375A5A5A70
:104208001E0000BFF369FFEF0010014000440040AA
:1042180000480040004C004000500040001401409D
:1042280000780040007C004000380240FEF770FB38
:1042380000283DD06268530803EB4003B3FBF2F358
:10424800A3F110014FF6EF72914233D89AB222F0DF
:104258000F02C3F3420313432268D36000202CE00B
:10426800FEF766FBE4E7FEF729FAE1E71748E1E71E
:10427800164802E0FEF74CFB18B3636800EB5300E6
:10428800B0FBF3F0A0F110024FF6EF739A421AD880
:10429800236880B2D86000200FE0FEF749FBEBE707
:1042A800FEF70CFAE8E74FF40040E6E7012004E0E7
:1042B800002002E0012000E001200023A366E3665D
:1042C80010BD0020F9E70120F7E700BF0024F40043
:1042D800436A13F0080F06D00268536823F40043BA
:1042E800416B0B435360436A13F0010F06D0026819
:1042F800536823F40033816A0B435360436A13F015
:10430800020F06D00268536823F48033C16A0B4356
:104318005360436A13F0040F06D00268536823F40D
:104328008023016B0B435360436A13F0100F06D0D0
:104338000268936823F48053816B0B439360436A4C
:1043480013F0200F06D00268936823F40053C16B62
:104358000B439360436A13F0400F0AD00268536816
:1043680023F48013016C0B435360036CB3F5801F77
:104378000BD0436A13F0800F06D00268536823F409
:104388000023816C0B43536070470268536823F421
:10439800C003416C0B435360EBE72DE9F843054636
:1043A8000E4617469946DDF820802B68DC6936EA08
:1043B80004040CBF01240024BC423AD1B8F1FF3FE9
:1043C800F3D0FCF76FFDA0EB0900404534D8B8F1F5
:1043D800000F33D02B681A6812F0040FE5D0B6F13D
:1043E800400218BF0122802EDFD0002ADDD0DA6912
:1043F80012F0080F11D1DA6912F4006FD5D04FF41A
:1044080000621A622846FFF7A5FD2023C5F884300C
:10441800002385F8783003200CE008241C62284625
:10442800FFF798FDC5F88440002385F8783001200F
:1044380000E00020BDE8F8830320FBE70320F9E74C
:104448002DE9F04182B01E46C36F202B57D1044698
:104458000D469046002A18BF002901D101204FE0DF
:104468000023C0F884302123C367FCF71BFD0746EF
:10447800A4F85080A4F85280A368B3F5805F02D0F6
:104488004FF0000815E023693BB34FF0000810E037
:104498002023E367032033E038F8023B2268C3F3A4
:1044A80008039362B4F8522092B2013A92B2A4F887
:1044B8005220B4F852309BB293B100963B4600228A
:1044C80080212046FFF769FF0028E1D1002DE3D0C5
:1044D80015F8012B23689A62E4E7A8460025E8E767
:1044E80000963B46002240212046FFF756FF10B9B0
:1044F8002023E36704E02023E367032000E0022091
:1045080002B0BDE8F08130B583B004460023C0F89E
:104518008430FCF7C7FC05462268126812F0080FC1
:104528000FD123681B6813F0040F26D12023E367FB
:10453800C4F8803000202066606684F8780003B0F4
:1045480030BD6FF07E430093034600224FF4001104
:104558002046FFF722FF0028E3D0226852E8003FF8
:1045680023F0800342E800310029F6D12023E367D5
:10457800002384F878300320E1E76FF07E4300934E
:104588002B4600224FF480012046FFF706FF002843
:10459800CCD0226852E8003F23F4907342E80031FF
:1045A8000029F6D1226802F1080353E8003F23F0FE
:1045B8000103083242E800310029F3D12023C4F86E
:1045C8008030002384F878300320B8E768B310B54A
:1045D8000446C36F03B32423E3672268136823F0F8
:1045E80001031360636AE3B92046FFF7DDFC012885
:1045F80011D02268536823F490435360226893686B
:1046080023F02A0393602268136843F001031360C0
:104618002046FFF778FF10BD80F87830FCF71EFBC6
:10462800D9E72046FFF754FEDEE701207047000077
:104638000B4B1B680B4AA2FB03235B0A41F288322F
:1046480002FB03F31A46013B3AB1426B12F0800FAA
:10465800F8D0C5238363002070474FF000407047AF
:1046680000000020D34D621084B00DF1040C8CE8DA
:104678000E000B461343039A1343049A1343059AF7
:104688001343069A13434168034A0A40134343609D
:10469800002004B0704700BF0081FFFFD0F8800001
:1046A80070470B68C0F88030002070470323036010
:1046B80000207047006800F0030070470B688360B3
:1046C8004B688A681343CA6813430A691343C2686C
:1046D8006FF30B021343C360002070470069C0B238
:1046E80070471430405870470B6843624B688362C8
:1046F8008B68CA6813430A6913434A691343C26A39
:1047080022F0F7021343C3620020704710B586B049
:104718000446002301930293039304934FF48063A8
:10472800059301A9FFF7CAFF2046FFF781FF06B0EE
:1047380010BD000038B504460D46504B1B68504963
:10474800A1FB03135B0A03FB02F21346013A002B99
:104758005DD0636B13F0450FF7D013F4006FF4D1FD
:10476800636B13F0040F06D1636B13F0010F05D0D0
:104778000120A0634DE00420A0634AE0C523A363A1
:104788002046FFF7ABFFA84201D0012041E00021FD
:104798002046FFF7A6FF03463A481840C8B3002B47
:1047A80038DB13F0804F38D113F0005F37D113F0A6
:1047B800805F36D113F0006F36D113F0806F36D199
:1047C80013F0807F36D113F4000F36D113F4800F25
:1047D80036D113F4001F36D113F4801F36D113F4E9
:1047E800802F36D113F4003F36D113F4803F36D1F1
:1047F80013F4004F36D113F4804F36D113F4005F11
:1048080036D113F0080F36D04FF4000001E04FF016
:10481800004038BD4FF00070FBE74020F9E78020EA
:10482800F7E74FF48070F4E74FF40070F1E74FF4C6
:104838008060EEE74FF40060EBE74FF48050E8E764
:104848004FF40050E5E74FF48040E2E74FF40040B2
:10485800DFE74FF40030DCE74FF48020D9E74FF46E
:104868000020D6E74FF48010D3E74FF40010D0E7CC
:104878004FF48000CDE74FF48030CAE700000020F5
:10488800D34D621008E0FFFD30B587B004460191B2
:104898001025029540230393002304934FF480636B
:1048A800059301A9FFF70AFF41F2883229462046FD
:1048B800FFF740FF07B030BD30B587B0044601911F
:1048C8001125029540230393002304934FF480633A
:1048D800059301A9FFF7F2FE41F2883229462046E6
:1048E800FFF728FF07B030BD30B587B00446019107
:1048F8001225029540230393002304934FF4806309
:10490800059301A9FFF7DAFE41F2883229462046CD
:10491800FFF710FF07B030BD30B587B004460191EE
:104928001825029540230393002304934FF48063D2
:10493800059301A9FFF7C2FE41F2883229462046B5
:10494800FFF7F8FE07B030BD30B587B004460191D7
:104958001925029540230393002304934FF48063A1
:10496800059301A9FFF7AAFE41F28832294620469D
:10497800FFF7E0FE07B030BD30B587B0044600232E
:1049880001930C2502954022039204934FF480630F
:10499800059301A9FFF792FE034A29462046FFF72F
:1049A800C9FE07B030BD00BF00E1F50530B587B0DE
:1049B800044601920725029540230393002304939C
:1049C8004FF48063059301A9FFF778FE41F288321E
:1049D80029462046FFF7AEFE07B030BD30B587B098
:1049E800044601913725029540230393002304933D
:1049F8004FF48063059301A9FFF760FE41F2883206
:104A080029462046FFF796FE07B030BD30B587B07F
:104A1800044601910D250295402303930023049336
:104A28004FF48063059301A9FFF748FE41F28832ED
:104A380029462046FFF77EFE07B030BD0146144BDD
:104A48001B68144AA2FB03235B0A41F2883202FB6B
:104A580003F31A46013BBAB14A6B12F0450FF8D07E
:104A680012F4006FF5D14B6B13F0040F06D1486BAD
:104A780010F0010005D1C5238B63704704208863BB
:104A880070470120886370474FF00040704700BFAF
:104A980000000020D34D621010B586B004460023F4
:104AA800019302220292C022039204934FF480637E
:104AB800059301A9FFF702FE2046FFF7BFFF06B0E6
:104AC80010BD10B586B00446019109230293C02396
:104AD8000393002304934FF48063059301A9FFF720
:104AE800EDFD2046FFF7AAFF06B010BD0146104BAA
:104AF8001B68104AA2FB03235B0A41F2883202FBBF
:104B080003F31A46013B82B14A6B12F0450FF8D005
:104B180012F4006FF5D1486B10F0040002D1C523E0
:104B28008B6370470420886370474FF000407047DC
:104B380000000020D34D621010B586B004460A4B21
:104B48000B430193292302934023039300230493E7
:104B58004FF48063059301A9FFF7B0FD2046FFF7E6
:104B6800C5FF06B010BD00BF00001080F8B50546AF
:104B78000E461746234B1B68234AA2FB03235B0AF6
:104B880041F2883202FB03F31A46013B8AB36C6B8D
:104B980014F0450FF8D014F4006FF5D16B6B13F0D7
:104BA800040F06D16B6B13F0010F05D00120A86329
:104BB80021E00420A8631EE02846FFF78FFDB042DD
:104BC80001D0012017E0C523AB6300212846FFF779
:104BD80088FD034610F4604008D013F4804F0BD1D1
:104BE80013F4004F0BD04FF4805004E01B0C3B80B3
:104BF80001E04FF00040F8BD4FF40050FBE74FF4E0
:104C08008030F8E700000020D34D621070B586B000
:104C180004460D4600230193032602964022039280
:104C280004934FF48063059301A9FFF747FD2A46D3
:104C380031462046FFF79AFF06B070BD0146164B75
:104C48001B68164AA2FB03235B0A41F2883202FB67
:104C580003F31A46013BE2B14A6B12F0450FF8D054
:104C680012F4006FF5D14B6B13F0040F0BD14B6BA3
:104C780013F001030AD1486B10F040000BD040221A
:104C88008A63184670470420886370470120886348
:104C980070474FF00040704700000020D34D62106D
:104CA80010B586B004464FF4D573019308230293D8
:104CB80040230393002304934FF48063059301A9D1
:104CC800FFF7FCFC2046FFF7B9FF06B010BD82B025
:104CD80000230193019B01330193019BB3F1706F92
:104CE8001CD80369002BF5DA0A23019302E0019B23
:104CF800013B0193019B002BF9D1036943F00103A8
:104D08000361019B01330193019BB3F1706F08D8D4
:104D1800036913F0010FF4D1002000E0032002B072
:104D280070470320FBE7000084B010B5044603A8D1
:104D380080E80E009DF81130012B1FD1A36B23F4DE
:104D48008033A363E268184B1340E360E36823F4FD
:104D58004013E3609DF81830012B0AD02046FFF776
:104D6800B6FF9DF80E30012B14D0BDE8104004B0FA
:104D78007047E36843F48013E360EFE7E36843F0C8
:104D88004003E3602046FFF7A2FFA36B43F48033A0
:104D9800A363E6E7A36843F00603A360A36843F0B0
:104DA8002003A360E1E700BFBFFFBDFF836823F0D6
:104DB800010383600020704782B000230193019BA8
:104DC80001330193019BB3F1706F15D80369002B70
:104DD800F5DA00230193890141F020010161019B6B
:104DE80001330193019BB3F1706F08D8036913F085
:104DF800200FF4D1002000E0032002B07047032008
:104E0800FBE782B000230193019B01330193019BCF
:104E1800B3F1706F13D80369002BF5DA00230193FF
:104E280010230361019B01330193019BB3F1706F60
:104E380008D8036913F0100FF4D1002000E0032014
:104E480002B070470320FBE7D0F800381943C0F8D8
:104E5800001800207047000084B0F8B5044607A881
:104E680080E80E00002306E003F1400204EB820212
:104E78000021516001330E2BF6D99DF8266006BB40
:104E8800D4F8043843F00203C4F80438A36B23F4BD
:104E98000013A363236843F040032360236843F0AF
:104EA800800323600023C4F8003E9DF82130012BC5
:104EB80011D19DF81F304BB900212046FFF7C4FFE0
:104EC8000DE0A36B43F40013A363EBE70121204635
:104ED800FFF7BAFF03E003212046FFF7B5FF1021D3
:104EE8002046FFF769FF054600B101252046FFF778
:104EF80088FF00B1012504F5006C0023CCF81030C0
:104F0800CCF81430CCF81C300DE04FF09040C2F8CB
:104F1800000902E00020C2F8000900220A614FF6E9
:104F28007F328A6001339DF81C1099420ED904EB38
:104F3800431202F51061D2F800090028EADA002BC2
:104F4800E3D14FF00060C2F80009E6E700230AE069
:104F5800BBB14FF09047C2F8007B002202614FF6C8
:104F68007F3282600133994210D904EB431202F573
:104F78003060D2F8007B002FEADB0027C2F8007B04
:104F8800EBE74FF00067C2F8007BE6E7DCF810308B
:104F980023F48073CCF810300023A3616FF08043B2
:104FA80063619DF81E301BB9A36943F01003A36128
:104FB800A2690B4B1343A3619DF822301BB1A3696F
:104FC80043F00803A361012E04D02846BDE8F84049
:104FD80004B07047A269034B1343A361F5E700BF10
:104FE80000383C8004000040D0F8003E23F0030362
:104FF800C0F8003ED0F8043843F00203C0F8043883
:1050080000207047406900F00100704738B5054638
:10501800C36823F0C043C360012913D019BBC36818
:1050280043F08043C36000240A20FBF741FF0A34A1
:105038002846FFF7E7FF08B1C72CF5D9C82C14D0CC
:10504800002038BDC36843F00053C36000240A2021
:10505800FBF72EFF0A342846FFF7D4FF0128EDD0CE
:10506800C72CF4D9EAE70120EBE70120E9E70000C3
:1050780008B50349034800F085F9034B187008BDCB
:10508800C0090020406D0108C409002008B5134676
:105098000A4601460248FEF719F800B1012008BD8A
:1050A8006C03002008B513460A4601460248FEF77D
:1050B800A7F800B1012008BD6C03002008B503481B
:1050C800FEF737FB043818BF012008BD6C03002029
:1050D80008B501460148FEF71AFB08BD6C0300201D
:1050E800704708B5FFF7FCFF08BD08B500F014F9D4
:1050F80008BD08B500F016F908BD00B583B0012356
:105108008DF8073000F018F810B900238DF8073033
:105118009DF8070003B05DF804FB000008B5FFF731
:10512800ECFF012801D0022008BD0248FEF7D4FA9E
:10513800FAE700BF6C03002008B580210248FCF79D
:1051480099FC012008BD00BF0018024008B5074BB4
:1051580001221A70FFF7B2FF20B9044A137803F04E
:10516800FE031370014B187808BD00BF0C00002027
:1051780010B50446FFF7D2FF10B1044B187810BDE4
:105188002046FFF7E3FF014B1870F6E70C000020FC
:1051980008B5FFF7DBFF08BD38B50546FBF782FE0B
:1051A8000446FBF77FFE001BA84205D2FFF786FFE7
:1051B8000028F6D1002001E04FF0FF3038BD000094
:1051C80070B50C4615461E4647F23050FFF7E4FF0F
:1051D800002830DB324629462046FFF757FF08B142
:1051E800012029E0154B00221A60FBF75BFE0446FC
:1051F800124B1B6833B9FBF755FE001B47F22F53C0
:105208009842F5D90D4B1B680BB9012014E00B4BE4
:1052180000221A60FBF746FE0446FBF743FE001B1C
:1052280047F22F53984204D8FFF748FF0028F4D1DB
:1052380002E0012000E0012070BD00BFC809002085
:1052480070B50C4615461E461C4B00221A6047F2E4
:105258003050FFF7A1FF00282DDB324629462046B3
:10526800FFF720FF08B1012026E0FBF71BFE0446EC
:10527800124B1B6833B9FBF715FE001B47F22F537F
:105288009842F5D90D4B1B680BB9012014E00B4B64
:1052980000221A60FBF706FE0446FBF703FE001B1C
:1052A80047F22F53984204D8FFF708FF0028F4D19B
:1052B80002E0012000E0012070BD00BFCC09002001
:1052C80030B589B0134B187810F001041BD115467E
:1052D80003291CD8DFE801F002040A100C4613E089
:1052E8006846FFF7F5FE069B2B600DE06846FFF762
:1052F800EFFE079B2B8007E06846FFF7E9FE079B58
:105308005B0A2B6000E00324204609B030BD04246A
:10531800FAE700BF0C000020014B01221A60704719
:10532800CC090020014B01221A607047C8090020EF
:10533800134B5B7A13BB10B5044603F0FF00104B08
:1053480093F809C05FFA8CFC4FF0000E03F80CE0EC
:1053580093F809C003EB8C0CCCF804405C7A1C442D
:1053680022725A7A541CE4B25C7230320A703A23C0
:105378004B702F238B7081F803E010BD012070471C
:10538800D009002008B50022FFF7D2FF08BD02446B
:105398000346934200D1704703F8011BF9E7000068
:1053A80070B50D4B0D4D5B1B9C100026A64209D114
:1053B80000F078F90A4D0B4B5B1B9C100026A642A7
:1053C80005D170BD55F8043B98470136EEE755F80E
:1053D800043B98470136F2E75C6D01085C6D0108F3
:1053E8005C6D0108606D01082DE9F0478C468E461A
:1053F800089E154604461946002B40F0D080724599
:1054080047D9B2FA82F74FB1C7F120030EFA07FC69
:1054180020FA03F3BD4043EA0C0CBC404FEA154E9A
:10542800A8B2BCFBFEF8230C0EFB18CC08FB00F955
:1054380043EA0C43994528D9EB1808F1FF3204D206
:10544800994502D9A8F102022B44A3EB0903A4B29F
:10545800B3FBFEFC0EFB1C330CFB00F044EA0344D8
:10546800A04214D92C190CF1FF3304D2A04202D95E
:10547800ACF102032C44241A43EA02401EB1FC405A
:10548800002334607360BDE8F0874246DDE7634679
:10549800F1E7002A79D0B2FA82F3002B3FD01946FF
:1054A800C1F1200302FA01F52EFA03F20EFA01FE09
:1054B80020FA03F343EA0E034FEA154E00FA01F40B
:1054C800B2FBFEFCAFB20EFB1C201A0C0CFB07F85B
:1054D80042EA004290455AD9AA180CF1FF3004D28A
:1054E800904502D9ACF102002A44A2EB08029BB213
:1054F800B2FBFEFC0EFB1C220CFB07F743EA02433F
:105508009F4246D9EB180CF1FF3204D29F4202D9D0
:10551800ACF102022B44DB1B42EA004202E0AEEB94
:10552800020301224FEA154EAFB2B3FBFEFC200C7A
:105538000EFB1C330CFB07F840EA034398452AD9B5
:10554800EB180CF1FF3004D2984502D9ACF10200F7
:105558002B44A3EB0803A4B2B3FBFEFC0EFB1C33E5
:105568000CFB07F744EA0344A74216D92C190CF19F
:10557800FF3304D2A74202D9ACF102032C44E41B46
:1055880043EA00400F46114678E71F2188E7604646
:10559800ABE76246BFE76046DBE76346EFE7734584
:1055A80006D916B9002108466DE7C6E9000EF9E7E5
:1055B800B3FA83F787B9734501D3824207D8841AAF
:1055C8006EEB030301209C461EB900215BE73846B9
:1055D800FAE7C6E9004CF8E7C7F1200CBB4022FA0D
:1055E8000CF51D4320FA0CF12EFA0CF30EFA07FE07
:1055F80041EA0E014FEA154900FA07F4B3FBF9F83E
:105608001FFA85FE09FB18300B0C08FB0EFA43EA5B
:1056180000439A4502FA07F240D9EB1808F1FF3027
:1056280004D29A4502D9A8F102002B44A3EB0A033D
:1056380089B2B3FBF9F809FB183308FB0EFE41EAFF
:1056480003418E452CD9691808F1FF3304D28E45E1
:1056580002D9A8F10203294443EA0040A0FB0298BA
:10566800A1EB0E014145CE46434602D306D14C4537
:1056780004D2B9EB020E68EB05030138002EA4D062
:10568800B4EB0E0261EB030101FA0CFC22FA07F3FA
:105698004CEA0303F940C6E9003196E74046C5E7FE
:1056A8004346D9E7F8B500BFF8BC08BC9E4670472A
:0C56B800F8B500BFF8BC08BC9E46704767
:1056C400FF0000FF7EAA997E51000105920020622E
:1056D40002B37200B082000011000101000000005A
:1056E40000000000000000000000000000000000B6
:1056F40000000000000000000000000000000000A6
:105704000000000000800000000000000000000015
:105714000000000000000000000000000000000085
:105724000000000000000000000000000000000075
:105734000000000000000000000000000000000065
:105744000000000000000000000000000000000055
:105754000000000000000000000000000000000045
:105764000000000000000000000000000000000035
:105774000000000000000000000000000000000025
:105784000000000000000000000000000000000015
:105794000000000000000000000000000000000005
:1057A40000000000000000000000000000000000F5
:1057B4000000400080000010000000000000000015
:1057C40000000000000000000000000000000000D5
:1057D40000000000000000000000000000000000C5
:1057E40000000000000000000000000000000000B5
:1057F40000000000000000000000000000000000A5
:105804000000000000000000000050000000000044
:105814000000000000000000000000000000000084
:105824000000000000000000000000000000000074
:105834000000000000000000000000000000000064
:105844000000000000000000000000000000000054
:1058540000000000000000000000000000000080C4
:105864000000010000000000000000000000000033
:105874000000000000000000000000000000000024
:105884000000000000000000000000000000000014
:105894000000000000000000000000000000000004
:1058A40000000000000000000000000000000000F4
:1058B40000000000000000000030000000000000B4
:1058C40000000000000000000000000000000000D4
:1058D40000000000000000000000000000000000C4
:1058E40000000000000000000000000000000000B4
:1058F40000000000000000000000000000000000A4
:105904000000000000000000000000000000000093
:105914000000000000000000000000000000000083
:105924000000000000000000000000000000000073
:105934000000000000000000000000000000000063
:105944000000000000000000000000000000000053
:105954000000000000000000000000000000000043
:105964000000000000000000000000000000000033
:105974000000000000000000000000000000000023
:105984000000000000000000000000000000000013
:105994000000000000000000000000000000000003
:1059A40000000000000000000000000000000000F3
:1059B40000000000000000000000070200000000DA
:1059C40000000000000000000000000000000000D3
:1059D40000000000000000000000000000000000C3
:1059E40000000000000000000000000000000000B3
:1059F40000000000000000000000000000000000A3
:105A04000000000000000000000000000000000092
:105A14000000000000000000000000000000000082
:105A24000000000000000000000000000000000072
:105A34000000000000000000000000000000000062
:105A44000000000000000000000000000000000052
:105A54000000000000000000000000000000000042
:105A64000000000000000000000100000000000031
:105A74000000000000000000000000000000000022
:105A84000000000000000000000000000000008092
:105A940000400000000000000000000000000000C2
:105AA40000000000000000000000000000000000F2
:105AB40000000000000000000000000008000000DA
:105AC40030000000000000000000000000000000A2
