:020000040800F2
:100000000000082015170008951400089D1400082A
:10001000A5140008AD140008B51400080000000085
:10002000000000000000000000000000BD140008F7
:10003000CB14000800000000D9140008E7140008E1
:1000400065170008651700086517000865170008A0
:100050006517000865170008651700086517000890
:10006000F3140008651700086517000865170008F5
:100070006517000865170008651700086517000870
:100080006517000865170008651700086517000860
:100090006517000865170008651700086517000850
:1000A0006517000865170008651700086517000840
:1000B0006517000865170008651700086517000830
:1000C0006517000865170008651700086517000820
:1000D0006517000865170008651700086517000810
:1000E0006517000865170008651700086517000800
:1000F00065170008651700086517000865170008F0
:100100006517000801150008651700086517000845
:1001100065170008651700086517000865170008CF
:100120006517000865170008651700081515000811
:1001300065170008651700086517000865170008AF
:1001400065170008651700086517000829150008DD
:10015000651700083D1500086517000865170008B9
:10016000651700086517000865170008651700087F
:1001700065170008651700086517000800000000F3
:10018000651700086517000865170008651700085F
:10019000651700086517000865170008651700084F
:1001A000651700086517000865170008651700083F
:1001B0005115000865170008651700086517000845
:1001C00065170008651700080000000065170008A3
:1001D000651700086517000865170008651700080F
:1001E00065170008651700086517000865170008FF
:0801F0006517000865170008FF
:1002000010B5054C237833B9044B13B10448AFF350
:1002100000800123237010BD9C020020000000001C
:100220008C0F010808B5034B1BB103490348AFF31A
:10023000008008BD00000000A00200208C0F010813
:1002400001F0FF01102A2BDB10F0070F08D010F887
:10025000013B013A8B422DD010F0070F42B3F6D18B
:10026000F0B441EA012141EA014122F007047FF0A4
:1002700000070023F0E80256083C85EA010586EAFB
:10028000010685FA47F5A3FA87F586FA47F6A5FA37
:1002900087F68EB9EED1F0BC01F0FF0102F0070243
:1002A00032B110F8013B013A83EA010313B1F8D1EE
:1002B0000020704701387047002D06BF35460338CF
:1002C000073815F0010F07D1013015F4807F02BF08
:1002D000013015F4C03F0130F0BC0138704700BF59
:1002E00053B94AB9002908BF00281CBF4FF0FF319D
:1002F0004FF0FF3000F088B9ADF1080C6DE904CE85
:1003000000F006F8DDF804E0DDE9022304B07047F0
:100310002DE9F047089D0F4604468C46002B48D136
:100320008A42164661D9B2FA82F34BB1C3F1200278
:1003300001FA03FC20FA02F29E4042EA0C0C9C40B7
:100340004FEA164EB7B2BCFBFEF1220C0EFB11CCED
:1003500042EA0C4201FB07F0904209D9B21801F1C0
:10036000FF3C80F0EE80904240F2EB800239324454
:10037000121AA4B2B2FBFEF00EFB102244EA0244B1
:1003800000FB07F7A74209D9341900F1FF3280F0CA
:10039000DA80A74240F2D7803444023840EA014074
:1003A000E41B00211DB1DC400023C5E90043BDE88A
:1003B000F0878B4206D90DB1C5E90001002108463E
:1003C000BDE8F087B3FA83F1002948D1BB4202D3DC
:1003D000824200F20781841A67EB030201209446EF
:1003E000002DE4D0C5E9004CE1E7002A00F092803E
:1003F000B2FA82F3002B40F0A8808A1A4FEA164E18
:100400001FFA86FC0121200CB2FBFEF70EFB17221F
:1004100040EA02420CFB07F0904207D9B21807F1FC
:10042000FF3802D2904200F2E2804746121AA4B28C
:10043000B2FBFEF00EFB102244EA02440CFB00FC6F
:10044000A44507D9341900F1FF3202D2A44500F2C5
:10045000CB801046A4EB0C0440EA0740A2E7C1F1B0
:1004600020068B4022FA06FC4CEA030C07FA01F442
:1004700020FA06F3F7404FEA1C49234300FA01F83B
:100480001FFA8CFEB7FBF9F01C0C09FB107744EA4D
:10049000074400FB0EF7A74202FA01F20AD91CEB4F
:1004A000040400F1FF3A80F09B80A74240F298805C
:1004B00002386444E41B9FB2B4FBF9F309FB134414
:1004C00047EA044403FB0EFEA64509D91CEB0404CD
:1004D00003F1FF3780F08280A6457FD9023B644458
:1004E00043EA0040A4EB0E04A0FB02E7BC427346C3
:1004F000B94663D360D05DB1B8EB030264EB090485
:1005000004FA06F622FA01F31E43CC40C5E9006462
:1005100000214CE76208480842EAC1710B0C43EA2B
:1005200000438AB242EA0342B3FBF6F1E407B44661
:100530003746B6461F23B0FBF6F0D21B41EA004116
:1005400061E7614614E7104628E7C3F1200120FA6D
:1005500001F29E4027FA01F19F403A434FEA164EBE
:100560001FFA86FCB1FBFEF70EFB1710110C41EAD7
:10057000004107FB0CF8884504FA03F43AD97118D6
:1005800007F1FF3001D288451FD8A1EB0801B1FB6C
:10059000FEF808FB0CF70EFB181192B242EA01427A
:1005A000BA422FD2B21808F1FF31C6D2BA42C4D231
:1005B000A8F102013244C0E7F0459CD2BEEB020331
:1005C00067EB0C070138B94695E7A6EB08084144EC
:1005D000B81EB1FBFEF808FB0CF7DCE73B467FE7F3
:1005E000504667E70846FBE63444023832E7023FEC
:1005F00032441BE7A1EB08013846B1FBFEF808FBCB
:100600000CF7C8E7414698E7704700BF80B582B055
:1006100000AF104B1B6B0F4A43F4800313630D4B69
:100620001B6B03F480037B607B68002200213B206E
:1006300001F0F5F93B2001F00EFA002200214520DF
:1006400001F0EDF9452001F006FA00BF0837BD467C
:1006500080BD00BF0038024080B500AF1F4B204A6C
:100660001A60204B00221A701E4B80225A701D4BBC
:10067000E1229A701B4B0022DA701A4B00221A7189
:10068000184B00225A71154B164A5A60134B4FF4FF
:1006900000029A60114B144ADA60104B134A1A6137
:1006A0000E4B40F2F4525A610C4801F095FD03469E
:1006B000002B01D000F09EFB382200210C4810F0E6
:1006C0008DF80B4B21221A60094B4FF440025A61FE
:1006D000074B00221A6100BF80BD00BFF00200205E
:1006E00000800240A0030020FC0100205C010020EB
:1006F000B802002080B58EB000AF786007F1240307
:1007000000221A605A609A60DA601A617B681B687E
:100710004E4A934240F096804D4B1B6B4C4A43F03F
:10072000007313634A4B1B6B03F000733B623B6A1D
:10073000474B1B6B464A43F080631363444B1B6B70
:1007400003F08063FB61FB69414B1B6B404A43F044
:10075000006313633E4B1B6B03F00063BB61BB691B
:100760003B4B1B6B3A4A43F004031363384B1B6B40
:1007700003F004037B617B69354B1B6B344A43F008
:1007800001031363324B1B6B03F001033B613B69B5
:100790002F4B1B6B2E4A43F0020313632C4B1B6B36
:1007A00003F00203FB60FB68294B1B6B284A43F0F4
:1007B00040031363264B1B6B03F04003BB60BB6815
:1007C00032237B620223BB620023FB6202233B6372
:1007D0000B237B6307F1240319461E4802F04AF8F5
:1007E00086237B620223BB620023FB6202233B63FE
:1007F0000B237B6307F124031946174802F03AF8EC
:100800004FF400537B620223BB620023FB6202238E
:100810003B630B237B6307F1240319460F4802F067
:1008200029F84FF420537B620223BB620023FB6252
:1008300002233B630B237B6307F12403194608481B
:1008400002F018F800BF3837BD4680BD0080024076
:10085000003802400008024000000240000402404C
:100860000018024080B58EB000AF07F124030022CB
:100870001A605A609A60DA601A616C4B1B6B6B4AA3
:1008800043F010031363694B1B6B03F010033B62CF
:100890003B6A664B1B6B654A43F004031363634B6F
:1008A0001B6B03F00403FB61FB69604B1B6B5F4A2E
:1008B00043F0200313635D4B1B6B03F02003BB610C
:1008C000BB695A4B1B6B594A43F080031363574B68
:1008D0001B6B03F080037B617B69544B1B6B534A9A
:1008E00043F001031363514B1B6B03F001033B61A6
:1008F0003B694E4B1B6B4D4A43F0020313634B4B5A
:100900001B6B03F00203FB60FB68484B1B6B474A01
:1009100043F008031363454B1B6B03F00803BB60F4
:10092000BB68424B1B6B414A43F0400313633F4B90
:100930001B6B03F040037B607B68002210213C4866
:1009400002F05CF9002244F281013A4802F056F9C3
:1009500000224421384802F051F942F204037B623C
:100960004FF48813BB620023FB6207F1240319468E
:10097000324801F07FFF10237B620023BB6200231B
:10098000FB6207F1240319462D4801F073FF102381
:100990007B620123BB620023FB6200233B6307F100
:1009A00024031946224801F065FF44F281037B626B
:1009B0000123BB620023FB6200233B6307F1240396
:1009C00019461C4801F056FF02237B620023BB62DC
:1009D0000023FB6207F124031946164801F04AFF81
:1009E00044237B620123BB620023FB6200233B6341
:1009F00007F124031946104801F03CFF80237B6275
:100A00000023BB620023FB6207F1240319460A4856
:100A100001F030FF00220021082001F000F808203A
:100A200001F019F800BF3837BD4680BD00380240DC
:100A3000000002400004024000180240000802408A
:100A40000014024080B483B000AF786000BF0C3760
:100A5000BD465DF8047B704780B5ADF5055D84B09B
:100A600000AF00F080FE00F041F9FFF7FBFEFFF75A
:100A7000CDFD00F039FC00F0FBFBFFF7EDFD00F0D1
:100A8000B9FD00F0BDF900F0AFFA09F01FFE0FF05C
:100A900055F8002342F24C123A441360834B03F59D
:100AA000055303F110033B440122814918460EF01F
:100AB00023FA034642F247123A44137008E042F226
:100AC00047133B441B781A467A497B480FF064FE73
:100AD00042F247133B441B78002BF0D1774976480C
:100AE0000FF05AFE7448FFF7ADFF07F1D002744BC8
:100AF00003F5055303F110033B44194671480EF00A
:100B000045FE07F5A87353F8803CDB69023B07F507
:100B1000A87252F8802C528902FB03F307EE903A38
:100B2000B8EE677BB6EE006B27EE067BFCEEC77B6C
:100B300017EE903A07F50552136007F5A87353F8BE
:100B4000803C5B891A4607F5A87353F8843C02FB86
:100B500003F307EE903AB8EE677BB6EE006B27EE34
:100B6000067BFCEEC77B17EE903A42F23C123A4409
:100B7000136007F505531A6853494F480FF00CFEF0
:100B80004D48FFF75FFF42F23C133B441A684F4960
:100B900049480FF001FE4848FFF754FF4C4B03F55E
:100BA000055303F110033B440B224A4918460EF04B
:100BB000E9F9034642F247123A44137008E042F260
:100BC00047133B441B781A4643493B480FF0E4FD6A
:100BD00042F247133B441B78002BF0D10022002146
:100BE000082000F01CFF082000F035FF002342F22F
:100BF00048123A441360394B1B78DBB2012B2CD1DD
:100C000072B600BF42F24C133B441B68344A98183A
:100C100042F24C133B441B6803F110434FF4007243
:100C200019460FF01FFE42F24C133B441B6803F5BC
:100C3000007323F0704342F24C123A441360274B86
:100C400000221A7042F248133B441B68013342F2FF
:100C500048123A44136062B600BF07F5A873A3F5C3
:100C6000A87300221A6042F248133B441B6840F20A
:100C700031229342BFD91B4B03F5055303F11003F7
:100C80003B44134842F250120244D019164A144908
:100C90000EF040FB0E4B03F5055303F110033B44EC
:100CA00018460EF049FD01BE01BEFDE7B4EFFFFF9F
:100CB0002C6C0420A40F0108A8680420D80F010898
:100CC0007CDFFFFFFC0F0108001001082010010865
:100CD00084DFFFFF4410010850100108A603002024
:100CE000A8030020B0DEFFFF0064040080B594B0CC
:100CF00000AF07F11C033422002118460FF06EFDEF
:100D000007F1080300221A605A609A60DA601A61DB
:100D100003F032FA2B4B1B6C2A4A43F080531364C6
:100D2000284B1B6C03F080537B607B68264B1B6851
:100D3000254A43F440431360234B1B6803F44043AC
:100D40003B603B680123FB614FF4A0233B6202231D
:100D50007B634FF48003BB630423FB63C0233B64CA
:100D600002237B640823BB640223FB6407F11C039A
:100D7000184603F059FF0346002B01D000F03AF863
:100D800003F00AFA0346002B01D000F033F80F23DA
:100D9000BB600223FB6000233B614FF4A0537B61E7
:100DA0004FF48053BB6107F108030621184604F095
:100DB000E9F90346002B01D000F01CF800BF5037C2
:100DC000BD4680BD003802400070004080B483B052
:100DD00000AF0346FB80FB88042B02D1044B0122A9
:100DE0001A7000BF0C37BD465DF8047B704700BF2A
:100DF000A603002080B400AF72B600BF00BFFDE7BD
:100E000080B500AF134B144A1A60124B01225A608E
:100E1000104B04229A600F4B1022DA600D4B1F22F8
:100E20001A610C4B4FF440725A610A4B00229A61CE
:100E3000084B0022DA61074B00221A62054803F0D2
:100E4000FBF90346002B01D0FFF7D4FF00F09EF81A
:100E500000BF80BDA4690420001000A080B58CB044
:100E600000AF786007F11C0300221A605A609A6094
:100E7000DA601A617B681B683F4A934278D13F4B26
:100E80009B6B3E4A43F0020393633C4B9B6B03F026
:100E90000203BB61BB69394B1B6B384A43F010033B
:100EA0001363364B1B6B03F010037B617B69334B81
:100EB0001B6B324A43F002031363304B1B6B03F08E
:100EC00002033B613B692D4B1B6B2C4A43F008032B
:100ED00013632A4B1B6B03F00803FB60FB680423BE
:100EE000FB6102233B6200237B620323BB62092375
:100EF000FB6207F11C031946214801F0BBFC0423E7
:100F0000FB6102233B6200237B620323BB62092354
:100F1000FB6207F11C0319461A4801F0ABFC4FF4C1
:100F20006053FB6102233B6200237B620323BB62AD
:100F30000923FB6207F11C031946134801F09AFCD0
:100F40004023FB6102233B6200237B620323BB62DD
:100F50000A23FB6207F11C0319460A4801F08AFCC8
:100F6000002200215C2000F05AFD5C2000F073FD9F
:100F700000BF3037BD4680BD001000A000380240E1
:100F80000010024000040240000C024080B590B006
:100F900000AF07F108033822002118460FF01EFCAD
:100FA0003B4600221A605A6000233B6200237B62AA
:100FB0000023BB620223FB614FF04073FB620023FE
:100FC0007B603A4607F108031946064803F06AFBBE
:100FD0000346002B01D0FFF70DFF00BF4037BD4691
:100FE00080BD00BFA469042080B400AF0C4B0D4A43
:100FF0001A600B4B00225A60094B00229A60084B82
:101000000022DA60064B00221A61054B00225A6169
:10101000034B00229A6100BFBD465DF8047B704718
:10102000F0690420002C014080B5AEB000AF7860BC
:1010300007F1A40300221A605A609A60DA601A610C
:1010400007F114039022002118460FF0C7FB7B68BC
:101050001B687F4A934240F0F6804FF420037B6187
:101060000023C7F890300023C7F8943007F1140329
:10107000184604F0ADFA0346002B01D0FFF7BAFE84
:10108000744B5B6C734A43F400635364714B5B6C49
:1010900003F400633B613B696E4B1B6B6D4A43F08D
:1010A000040313636B4B1B6B03F00403FB60FB68CF
:1010B000684B1B6B674A43F008031363654B1B6B5C
:1010C00003F00803BB60BB684FF47063C7F8A4303B
:1010D0000223C7F8A8300123C7F8AC300323C7F8B0
:1010E000B0300C23C7F8B43007F1A40319465A48AE
:1010F00001F0C0FB4FF48053C7F8A4300223C7F8B7
:10110000A8300023C7F8AC300323C7F8B0300C2355
:10111000C7F8B43007F1A40319464F4801F0AAFB01
:101120000423C7F8A4300223C7F8A8300123C7F866
:10113000AC300323C7F8B0300C23C7F8B43007F144
:10114000A4031946454801F095FB454B454A1A60F2
:10115000434B4FF000625A60414B00229A60404B73
:101160000022DA603E4B4FF480621A613C4B4FF430
:1011700080525A613A4B4FF480429A61384B202298
:10118000DA61374B00221A62354B04225A62344B23
:1011900003229A62324B4FF40002DA62304B4FF472
:1011A00000121A632E4800F071FC0346002B01D098
:1011B000FFF720FE7B682A4A1A64294A7B689363FA
:1011C000294B2A4A1A60284B4FF000625A60264B7E
:1011D00040229A60244B0022DA60234B4FF4806255
:1011E0001A61214B4FF480525A611F4B4FF48042D9
:1011F0009A611D4B2022DA611B4B00221A621A4BA6
:1012000004225A62184B03229A62174B4FF40002D1
:10121000DA62154B4FF400121A63134800F036FCE3
:101220000346002B01D0FFF7E5FD7B680E4ADA6329
:101230000D4A7B68936300220021312000F0EFFB10
:10124000312000F008FC00BFB837BD4680BD00BFAC
:10125000002C01400038024000080240000C02400F
:10126000746A042058640240D46A0420A0640240D6
:1012700080B582B000AF00F0DDF8012000F0D0FAB8
:1012800000F0CCF8022000F0CBFA00F0AFF8002319
:10129000FB71F91D64230122104806F08FF900F05C
:1012A000B1F840F6B8334FF6FF720D490B4806F01F
:1012B00085F940F6B83341F25D620A49074806F005
:1012C0007DF900F093F8C82313220549034806F07E
:1012D00075F900BF0837BD4680BD00BF346B0420E0
:1012E00000001E08FFFF1E0880B500AF1B4B1C4A04
:1012F0001A601A4B4FF482725A60184B00229A609F
:10130000164B4FF4E062DA60144B02221A61134B61
:1013100001225A61114B4FF400729A610F4B102257
:10132000DA610E4B00221A620C4B00225A620B4B00
:1013300000229A62094B0722DA62084B00221A63E4
:10134000064B00225A63054806F08DF80346002B31
:1013500001D0FFF74FFD00BF80BD00BF346B0420FC
:10136000003C004080B58AB000AF786007F11403FC
:1013700000221A605A609A60DA601A617B681B6802
:10138000174A934227D1174B1B6C164A43F400436C
:101390001364144B1B6C03F400433B613B69114B1A
:1013A0001B6B104A43F0020313630E4B1B6B03F0DD
:1013B0000203FB60FB6838237B610223BB610023CF
:1013C000FB6103233B6206237B6207F1140319468A
:1013D000054801F04FFA00BF2837BD4680BD00BF69
:1013E000003C0040003802400004024080B500AFDD
:1013F00001221021024801F001FC00BF80BD00BFA6
:101400000000024080B500AF00221021024801F028
:10141000F5FB00BF80BD00BF0000024080B500AFFB
:1014200001220421024801F0E9FB00BF80BD00BF9A
:101430000018024080B500AF00220421024801F0EC
:10144000DDFB00BF80BD00BF0018024080B483B048
:1014500000AF0F4B1B6C0E4A43F0805313640C4BD0
:101460001B6C03F080537B607B68094B5B6C084A04
:1014700043F480435364064B5B6C03F480433B604E
:101480003B6800BF0C37BD465DF8047B704700BF6A
:101490000038024080B400AF00BFFDE780B400AF69
:1014A00000BFFDE780B400AF00BFFDE780B400AF30
:1014B00000BFFDE780B400AF00BFFDE780B400AF20
:1014C00000BFBD465DF8047B704780B400AF00BF2D
:1014D000BD465DF8047B704780B400AF00BFBD46D9
:1014E0005DF8047B704780B500AF00F079F900BF6C
:1014F00080BD80B500AF042001F09AFB00BF80BD25
:1015000080B500AF024804F003FF00BF80BD00BFFC
:10151000F069042080B500AF024800F0E7FB00BF8F
:1015200080BD00BF746A042080B500AF024801F09E
:10153000CFFC00BF80BD00BF4C83042080B500AF4E
:10154000024800F0D3FB00BF80BD00BFD46A042076
:1015500080B500AF024802F0EBFE00BF80BD00BFC7
:10156000A469042080B586B000AF7860144A154B9A
:10157000D31A7B617B693B61134B1B68002B02D143
:10158000114B124A1A60104B1A687B6813443A696F
:101590009A4207D20FF03AF903460C221A604FF034
:1015A000FF3309E0084B1B68FB60074B1A687B6838
:1015B0001344054A1360FB6818461837BD4680BDC2
:1015C0000000082000080000986B0420788904209F
:1015D00080B400AF064BD3F88830054A43F470035B
:1015E000C2F8883000BFBD465DF8047B704700BF7D
:1015F00000ED00E080B500AF144B154A1A60134BA4
:101600004FF4E1325A60114B00229A600F4B0022D6
:10161000DA600E4B00221A610C4B0C225A610B4B04
:1016200000229A61094B0022DA61084B00221A62FB
:10163000064B00225A62054806F0BEFA0346002B0C
:1016400001D0FFF7D7FB00BF80BD00BF9C6B04201B
:101650000048004080B5AEB000AF786007F1A40349
:1016600000221A605A609A60DA601A6107F1140366
:101670009022002118460FF0B1F87B681B68224ABF
:1016800093423CD14FF480737B6100233B6607F1AA
:101690001403184603F09CFF0346002B01D0FFF70C
:1016A000A9FB1A4B1B6C194A43F480231364174B94
:1016B0001B6C03F480233B613B69144B1B6B134A87
:1016C00043F008031363114B1B6B03F00803FB602B
:1016D000FB684FF44073C7F8A4300223C7F8A83062
:1016E0000023C7F8AC300323C7F8B0300723C7F88E
:1016F000B43007F1A4031946054801F0BBF800BF58
:10170000B837BD4680BD00BF0048004000380240E9
:10171000000C0240DFF834D0FFF75AFF0C480D49A7
:101720000D4A002302E0D458C4500433C4188C423C
:10173000F9D30A4A0A4C002301E013600432A242A2
:10174000FBD30FF069F8FFF787F970470000082016
:10175000000000205C010020DC1501089C02002034
:1017600074890420FEE780B500AF032000F04CF937
:10177000002000F005F8FFF769FE0023184680BD41
:1017800080B582B000AF7860124B1A68124B1B789C
:1017900019464FF47A73B3FBF1F3B2FBF3F3184637
:1017A00000F067F90346002B01D001230EE07B68AF
:1017B0000F2B0AD8002279684FF0FF3000F02FF984
:1017C000064A7B681360002300E0012318460837AF
:1017D000BD4680BD0000002008000020040000205D
:1017E00080B400AF064B1B781A46064B1B681344A7
:1017F000044A136000BFBD465DF8047B704700BF1C
:1018000008000020246C042080B400AF034B1B6848
:101810001846BD465DF8047B704700BF246C042069
:1018200080B584B000AF7860FFF7EEFFB8607B68EA
:10183000FB60FB68B3F1FF3F05D00A4B1B781A46EB
:10184000FB681344FB6000BFFFF7DEFF0246BB6886
:10185000D31AFA689A42F7D800BF00BF1037BD46C6
:1018600080BD00BF0800002080B485B000AF786064
:101870007B6803F00703FB600B4BDB68BB60BA6857
:101880004FF6FF031340BB60FB681A02BB681A43A4
:10189000064B1343BB60044ABB68D36000BF1437D8
:1018A000BD465DF8047B704700ED00E00000FA05DE
:1018B00080B400AF044BDB681B0A03F00703184633
:1018C000BD465DF8047B704700ED00E080B483B056
:1018D00000AF0346FB7197F90730002B0BDBFB7958
:1018E00003F01F02074997F907305B09012000FA4E
:1018F00002F241F8232000BF0C37BD465DF8047B9F
:10190000704700BF00E100E080B483B000AF034641
:101910003960FB7197F90730002B0ADB3B68DAB2BC
:101920000C4997F907301201D2B20B4483F8002317
:101930000AE03B68DAB20849FB7903F00F03043B85
:101940001201D2B20B441A7600BF0C37BD465DF8C7
:10195000047B704700E100E000ED00E080B489B056
:1019600000AFF860B9607A60FB6803F00703FB61C1
:10197000FB69C3F10703042B28BF0423BB61FB6988
:101980000433062B02D9FB69033B00E000237B6193
:101990004FF0FF32BB6902FA03F3DA43BB681A4027
:1019A0007B699A404FF0FF317B6901FA03F3D94319
:1019B0007B680B40134318462437BD465DF8047B13
:1019C0007047000080B582B000AF78607B68013B53
:1019D000B3F1807F01D301230FE00A4A7B68013B0A
:1019E00053600F214FF0FF30FFF78EFF054B0022B1
:1019F0009A60044B07221A60002318460837BD4638
:101A000080BD00BF10E000E080B582B000AF78601C
:101A10007868FFF729FF00BF0837BD4680BD80B555
:101A200086B000AF0346B9607A60FB7300237B6128
:101A3000FFF73EFF78617A68B9687869FFF78EFF33
:101A4000024697F90F3011461846FFF75DFF00BFB9
:101A50001837BD4680BD80B582B000AF0346FB712C
:101A600097F907301846FFF731FF00BF0837BD462A
:101A700080BD80B582B000AF78607868FFF7A2FFC4
:101A8000034618460837BD4680BD000080B586B0C5
:101A900000AF786000237B61FFF7B6FE38617B689A
:101AA000002B01D1012399E07B68022283F83520C5
:101AB0007B68002283F834207B681B681A687B6887
:101AC0001B6822F001021A600FE0FFF79DFE02463C
:101AD0003B69D31A052B08D97B6820225A657B689D
:101AE000032283F83520032378E07B681B681B689A
:101AF00003F00103002BE8D17B681B681B687B6146
:101B00007A69384B13407B617B685A687B689B68B5
:101B10001A437B68DB681A437B681B691A437B683E
:101B20005B691A437B689B691A437B68DB691A43CC
:101B30007B681B6A13437A6913437B617B685B6A2A
:101B4000042B07D17B68DA6A7B681B6B13437A69C5
:101B500013437B617B681B687A691A607B681B682A
:101B60005B697B617B6923F007037B617B685B6A50
:101B70007A6913437B617B685B6A042B17D17B68AE
:101B80009B6A7A6913437B617B68DB6A002B0ED00A
:101B9000786800F0A5FA0346002B08D07B68402245
:101BA0005A657B68002283F83520012316E07B68A4
:101BB0001B687A695A61786800F05CFA0346FB603A
:101BC0007B68DB6D3F229A40FB689A607B6800224D
:101BD0005A657B68012283F83520002318461837A0
:101BE000BD4680BD3F8010E080B586B000AFF86094
:101BF000B9607A603B600023FB75FB689B6D3B61BD
:101C0000FB6893F83430012B01D1022348E0FB68D4
:101C1000012283F83420FB6893F83530DBB2012BC6
:101C200037D1FB68022283F83520FB6800225A6511
:101C30003B687A68B968F86800F0EEF9FB68DB6D1C
:101C40003F229A403B699A60FB681B681A68FB68F0
:101C50001B6842F016021A60FB681B685A69FB6831
:101C60001B6842F080025A61FB681B6C002B07D096
:101C7000FB681B681A68FB681B6842F008021A6060
:101C8000FB681B681A68FB681B6842F001021A6057
:101C900005E0FB68002283F834200223FB75FB7DFE
:101CA00018461837BD4680BD80B483B000AF786059
:101CB0007B6893F83530DBB2022B04D07B6880223E
:101CC0005A6501230CE07B68052283F835207B6888
:101CD0001B681A687B681B6822F001021A600023E7
:101CE00018460C37BD465DF8047B704780B586B05A
:101CF00000AF78600023BB608E4B1B688E4AA2FB4E
:101D000003239B0A7B617B689B6D3B613B691B687E
:101D1000FB607B68DB6D08229A40FB681340002B58
:101D20001AD07B681B681B6803F00403002B13D0D8
:101D30007B681B681A687B681B6822F004021A60C3
:101D40007B68DB6D08229A403B699A607B685B6D1B
:101D500043F001027B685A657B68DB6D01229A4083
:101D6000FB681340002B12D07B681B685B6903F093
:101D70008003002B0BD07B68DB6D01229A403B690E
:101D80009A607B685B6D43F002027B685A657B68F2
:101D9000DB6D04229A40FB681340002B12D07B6855
:101DA0001B681B6803F00203002B0BD07B68DB6D04
:101DB00004229A403B699A607B685B6D43F00402A1
:101DC0007B685A657B68DB6D10229A40FB68134084
:101DD000002B43D07B681B681B6803F00803002BB3
:101DE0003CD07B68DB6D10229A403B699A607B682F
:101DF0001B681B6803F48023002B18D07B681B68CA
:101E00001B6803F40023002B08D17B681B6C002B9C
:101E100024D07B681B6C786898471FE07B689B6CBC
:101E2000002B1BD07B689B6C7868984716E07B681A
:101E30001B681B6803F48073002B07D17B681B6849
:101E40001A687B681B6822F008021A607B681B6CAA
:101E5000002B03D07B681B6C786898477B68DB6D30
:101E600020229A40FB681340002B00F08F807B6893
:101E70001B681B6803F01003002B00F087807B6851
:101E8000DB6D20229A403B699A607B6893F835307D
:101E9000DBB2052B36D17B681B681A687B681B6830
:101EA00022F016021A607B681B685A697B681B68FF
:101EB00022F080025A617B681B6C002B03D17B6887
:101EC0009B6C002B07D07B681B681A687B681B68BB
:101ED00022F008021A607B68DB6D3F229A403B6962
:101EE0009A607B68012283F835207B68002283F8A2
:101EF00034207B681B6D002B7ED07B681B6D78685F
:101F0000984779E07B681B681B6803F48023002BEB
:101F10001DD07B681B681B6803F40023002B0DD1C8
:101F20007B685B6C002B31D07B685B6C7868984772
:101F30002CE000BF00000020B5814E1B7B68DB6BEE
:101F4000002B23D07B68DB6B786898471EE07B68AA
:101F50001B681B6803F48073002B0FD17B681B6820
:101F60001A687B681B6822F010021A607B680122E5
:101F700083F835207B68002283F834207B68DB6B94
:101F8000002B03D07B68DB6B786898477B685B6DC0
:101F9000002B32D07B685B6D03F00103002B22D055
:101FA0007B68052283F835207B681B681A687B688C
:101FB0001B6822F001021A60BB680133BB607A69BA
:101FC0009A4207D37B681B681B6803F00103002B50
:101FD000F2D100E000BF7B68012283F835207B68E6
:101FE000002283F834207B68DB6C002B05D07B68F3
:101FF000DB6C7868984700E000BF1837BD4680BDAD
:1020000080B483B000AF78607B685B6D18460C3796
:10201000BD465DF8047B704780B485B000AFF860C2
:10202000B9607A603B60FB681B681A68FB681B68D4
:1020300022F480221A60FB681B683A685A60FB68C9
:102040009B68402B08D1FB681B687A689A60FB6824
:102050001B68BA68DA6007E0FB681B68BA689A60B8
:10206000FB681B687A68DA6000BF1437BD465DF80C
:10207000047B704780B485B000AF78607B681B68D4
:10208000DBB2103B134AA2FB03231B09FB60124A7D
:10209000FB6813441B781A467B68DA65FB68032BE0
:1020A00008D97B681B681A460C4B13401A1D7B68C5
:1020B0009A6506E07B681B681A46084B13407A68ED
:1020C00093657B689B6D18461437BD465DF8047BAD
:1020D000704700BFABAAAAAA3C11010800FCFFFF91
:1020E00080B485B000AF78600023FB737B689B6A87
:1020F000BB607B689B69002B1FD1BB68032B56D844
:1021000001A252F823F000BF192100082B2100087A
:1021100019210008AF2100087B68DB6A03F0807397
:10212000002B46D00123FB7343E07B68DB6AB3F1ED
:10213000C07F40D10123FB733DE07B689B69B3F511
:10214000005F21D1BB68032B37D801A252F823F0DE
:102150006121000867210008612100087921000839
:102160000123FB7330E07B68DB6A03F08073002B94
:1021700025D00123FB7322E07B68DB6AB3F1C07FCB
:102180001FD10123FB731CE0BB68022B03D9BB6882
:10219000032B03D018E00123FB7315E07B68DB6A97
:1021A00003F08073002B0ED00123FB730BE000BF04
:1021B0000AE000BF08E000BF06E000BF04E000BF87
:1021C00002E000BF00E000BFFB7B18461437BD46AD
:1021D0005DF8047B704700BF80B584B000AF7860C5
:1021E0007B68002B01D1012386E07B68D3F8843023
:1021F000002B06D17B682022C3F884207868FEF784
:1022000079FA3F4B5B6C3E4A43F4804353643C4B4A
:102210005B6C03F48043BB60BB683A4B5B68394A34
:1022200023F400035360374B5A687B689B68354939
:1022300013434B60334B5B687B681B6803F580532B
:102240001B687A68126843F0010302F5805213603C
:10225000FFF7DAFAF86011E0FFF7D6FA0246FB68FA
:10226000D31AB3F5FA7F09D97B680422C3F8882012
:102270007B68E022C3F8842001233DE07B681B6873
:1022800003F580531B6803F00103002BE4D1786849
:1022900000F07AF9786800F025FA786800F07BFAA7
:1022A0007B685B681A460021786800F0E3F97B6878
:1022B0001B68DA6B7B681B6842F40272DA637B6826
:1022C0001B68D3F80C117B681A680F4B0B43C2F8DC
:1022D0000C317B681B68D3F810217B681B6842F4C3
:1022E0000312C3F810217B680022C3F888207B68A2
:1022F0001022C3F88420002318461037BD4680BD45
:1023000000380240003801406000020080B584B00F
:1023100000AF786039607B681B681B68FB60FA68F7
:10232000534B1340FB603B689B7B5B063A68127C17
:10233000002A02D14FF4000200E0002213433A6861
:10234000527C002A02D14FF4800200E000221A439E
:102350003B689B681A433B68DB7F1B041A433B685E
:102360005B6913433A68927F002A02D14FF400520E
:1023700000E000221A433B681B7F1B031A433B68A3
:102380009B691A433B681B799B0213433A6892F896
:102390002020002A02D14FF4007200E000221A43EC
:1023A0003B68DB7BDB011A433B685B6A1A433B6893
:1023B00093F828301B011343FA681343FB607B68D2
:1023C0001B68FA681A607B681B681B68FB60012049
:1023D000FFF726FA7B681B68FA681A607B681B683F
:1023E0009B69FB60FA684FF641731340FB603B68E2
:1023F0009B6C1B043A6892F84C20002A01D1802281
:1024000000E000221A433B681B6D13433A6892F8C0
:102410005520012A01D1082200E0002213433A6826
:1024200092F85620012A01D1042200E00022134331
:102430003A6892F85420012A01D1022200E00022D9
:102440001343FA681343FB607B681B68FA689A6160
:102450007B681B689B69FB600120FFF7E1F97B68E3
:102460001B68FA689A6100BF1037BD4680BD00BF87
:102470000F8120FD80B584B000AF786039607B6843
:102480001B6803F580539B69FB60FA683D4B134062
:10249000FB603B681B7B002B02D14FF0806200E0A9
:1024A00000223B685B7B5B0613433A68527F002A3D
:1024B00002D14FF4801200E000221A433B689B7B5C
:1024C0005B051A433B685B691A433B681B7FDB0172
:1024D0001A433B689B7F9B011A433B681B6A1A4364
:1024E0003B6893F824309B001343FA681343FB6066
:1024F0007B681B6803F580531A46FB6893617B6811
:102500001B6803F580539B69FB600120FFF788F986
:102510007B681B6803F580531A46FB6893613B6830
:102520001B795A063B689B681A433B689B691A43B0
:102530003B681B691A433B6893F82530DB011A435B
:102540003B689B6A9B001A433B681B6813437A688D
:10255000126843F4000302F5805213607B681B6825
:1025600003F580531B68FB600120FFF759F97B6876
:102570001B6803F580531A46FB68136000BF1037D1
:10258000BD4680BD233FDEF880B5A6B000AF7860C1
:10259000012387F84430012387F845300023FB638B
:1025A000002387F85330012387F85230002387F83F
:1025B0005030012387F84230012387F83830002358
:1025C00087F85430002387F843300023BB6500238D
:1025D00087F85C300023FB67002387F880300023F6
:1025E000C7F88430002387F88A30002387F88830C2
:1025F0004FF48043BB644FF40063FB64002387F80F
:10260000893007F1340319467868FFF77FFE01230C
:102610003B7501237B75012387F825300123BB75AA
:102620000023FB61002387F82430002387F826303D
:102630000023BB62012387F82C3001233B734FF446
:1026400080333B614FF480033B624FF40053BB6126
:10265000012387F82D3000233B630023BB6007F183
:10266000080319467868FFF705FF00BF9837BD4695
:1026700080BD000080B487B000AFF860B9607A60B8
:102680007B6805331B781B027A6804321278134387
:102690007B61BA68114B13441A467B6913607B68EF
:1026A00003331B781A067B6802331B781B041A431A
:1026B0007B6801331B781B0213437A68127813433B
:1026C0007B61BA68064B13441A467B69136000BFEE
:1026D0001C37BD465DF8047B704700BF4080024058
:1026E0004480024080B485B000AF78600023FB6076
:1026F0003EE07B68D968FA6813469B001344DB0010
:102700000B44BB60BB6800221A60BB6800225A60A1
:10271000BB6800229A60BB680022DA60B9687B68F7
:10272000FA68063243F82210BB681B6843F4801233
:10273000BB681A60FB68022B0CD87B68D968FB6801
:102740005A1C13469B001344DB000B441A46BB681B
:10275000DA6004E07B68DB681A46BB68DA60BB6855
:102760001B6843F44002BB681A60FB680133FB60DE
:10277000FB68032BBDD97B6800229A627B68DA680C
:102780007B681B6803F580531A6100BF1437BD4690
:102790005DF8047B704780B485B000AF786000239B
:1027A000FB6048E07B681969FA6813469B00134494
:1027B000DB000B44BB60BB6800221A60BB680022D0
:1027C0005A60BB6800229A60BB680022DA60BB686E
:1027D00000221A62BB6800225A62BB684FF00042B6
:1027E0001A607B685B6943F48042BB685A60BB68CF
:1027F0005B6823F00042BB685A60B9687B68FA687E
:10280000123243F82210FB68022B0CD87B6819693E
:10281000FB685A1C13469B001344DB000B441A460A
:10282000BB68DA6004E07B681B691A46BB68DA6043
:10283000FB680133FB60FB68032BB3D97B68002284
:10284000DA657B6800221A667B6800229A667B68DC
:102850000022DA667B6800229A657B681A697B68C9
:102860001B6803F58053DA6000BF1437BD465DF87E
:10287000047B704780B489B000AF78603960002372
:10288000FB6100237B6100233B610023BB610023CC
:10289000FB6175E10122FB6902FA03F37B613B688E
:1028A0001B687A6913403B613A697B699A4240F040
:1028B00064813B685B6803F00303012B05D03B6830
:1028C0005B6803F00303022B30D17B689B68BB611C
:1028D000FB695B00032202FA03F3DB43BA6913408E
:1028E000BB613B68DA68FB695B0002FA03F3BA6913
:1028F0001343BB617B68BA699A607B685B68BB61A4
:102900000122FB6902FA03F3DB43BA691340BB619E
:102910003B685B681B0903F00102FB6902FA03F3E1
:10292000BA691343BB617B68BA695A603B685B68EC
:1029300003F00303032B17D07B68DB68BB61FB69E3
:102940005B00032202FA03F3DB43BA691340BB6165
:102950003B689A68FB695B0002FA03F3BA691343A8
:10296000BB617B68BA69DA603B685B6803F00303AC
:10297000022B23D1FB69DA087B68083253F8223036
:10298000BB61FB6903F007039B000F2202FA03F30C
:10299000DB43BA691340BB613B681A69FB6903F00A
:1029A00007039B0002FA03F3BA691343BB61FB6997
:1029B000DA087B680832B96943F822107B681B6823
:1029C000BB61FB695B00032202FA03F3DB43BA69D4
:1029D0001340BB613B685B6803F00302FB695B006B
:1029E00002FA03F3BA691343BB617B68BA691A60E0
:1029F0003B685B6803F44033002B00F0BE80664BFD
:102A00005B6C654A43F480435364634B5B6C03F433
:102A10008043FB60FB68614AFB699B08023352F804
:102A20002330BB61FB6903F003039B000F2202FA12
:102A300003F3DB43BA691340BB617B68584A934296
:102A400037D07B68574A934231D07B68564A9342CD
:102A50002BD07B68554A934225D07B68544A9342D9
:102A60001FD07B68534A934219D07B68524A9342E5
:102A700013D07B68514A93420DD07B68504A9342F1
:102A800007D07B684F4A934201D1092312E00A2301
:102A900010E008230EE007230CE006230AE00523DC
:102AA00008E0042306E0032304E0022302E00123FC
:102AB00000E00023FA6902F0030292009340BA6931
:102AC0001343BB613549FB699B080233BA6941F87E
:102AD00023203D4B9B68BB613B69DB43BA691340D4
:102AE000BB613B685B6803F48013002B03D0BA69B9
:102AF0003B691343BB61344ABB699360324BDB686B
:102B0000BB613B69DB43BA691340BB613B685B68EF
:102B100003F40013002B03D0BA693B691343BB6174
:102B2000294ABB69D360284B5B68BB613B69DB43C7
:102B3000BA691340BB613B685B6803F40033002B48
:102B400003D0BA693B691343BB611F4ABB69536039
:102B50001D4B1B68BB613B69DB43BA691340BB611A
:102B60003B685B6803F48033002B03D0BA693B6990
:102B70001343BB61144ABB691360FB690133FB61FA
:102B8000FB690F2B7FF686AE00BF00BF2437BD4622
:102B90005DF8047B704700BF0038024000380140F8
:102BA000000002400004024000080240000C024005
:102BB000001002400014024000180240001C0240B5
:102BC0000020024000240240003C014080B485B057
:102BD00000AF78600B467B807B681A697B88134066
:102BE000002B02D00123FB7301E00023FB73FB7B6E
:102BF00018461437BD465DF8047B704780B483B037
:102C000000AF78600B467B8013467B707B78002B8F
:102C100003D07A887B689A6103E07B881A047B681A
:102C20009A6100BF0C37BD465DF8047B7047000019
:102C300080B582B000AF0346FB80084B5A69FB8821
:102C40001340002B06D0054AFB885361FB881846C9
:102C5000FEF7BCF800BF0837BD4680BD003C014010
:102C600080B586B002AF78607B68002B01D101236C
:102C700008E17B681B68BB607B6893F89534DBB226
:102C8000002B06D17B68002283F8942478680DF02D
:102C900047F97B68032283F89524BB68B3F1A04F02
:102CA00002D17B6800229A717B681B68184606F087
:102CB000D4FA7B6818687B681A7C8DF8002004338E
:102CC0000ECB06F0BDF90346002B05D07B6802222F
:102CD00083F895240123D5E07B681B680021184602
:102CE00006F0CCFA0346002B05D07B68022283F85D
:102CF00095240123C6E00023FB734AE0FA7B796840
:102D00001346DB0013449B000B44153301221A7059
:102D1000FA7B79681346DB0013449B000B441433A1
:102D2000FA7B1A70FA7BFB7B98B279681346DB005A
:102D300013449B000B442E3302461A80FA7B7968B9
:102D40001346DB0013449B000B44183300221A7017
:102D5000FA7B79681346DB0013449B000B441C3359
:102D600000221A60FA7B79681346DB0013449B004B
:102D70000B44203300221A60FA7B79681346DB008B
:102D800013449B000B44243300221A60FB7B013365
:102D9000FB737B681B79FA7B9A42AFD30023FB73EA
:102DA00044E0FA7B79681346DB0013449B000B4434
:102DB00003F2552300221A70FA7B79681346DB0070
:102DC00013449B000B4403F51573FA7B1A70FA7BCE
:102DD00079681346DB0013449B000B4403F516731C
:102DE00000221A70FA7B79681346DB0013449B00BB
:102DF0000B4403F5177300221A60FA7B79681346B7
:102E0000DB0013449B000B4403F5187300221A6087
:102E1000FA7B79681346DB0013449B000B4403F5EF
:102E2000197300221A60FB7B0133FB737B681B79EB
:102E3000FA7B9A42B5D37B6818687B681A7C8DF858
:102E4000002004330ECB06F065FA0346002B05D0B4
:102E50007B68022283F89524012313E07B6800221B
:102E60005A747B68012283F895247B681B7B012BB5
:102E700002D1786801F05CF97B681B68184607F09E
:102E8000A8FA002318461037BD4680BD80B582B031
:102E900000AF78607B6893F89434012B01D1022352
:102EA00012E07B68012283F894247B681B68184633
:102EB00006F0C2F97B681B68184607F069FA7B6860
:102EC000002283F89424002318460837BD4680BDAD
:102ED00090B58DB000AF78607B681B683B623B6A41
:102EE000FB617B681B68184607F027FB0346002B35
:102EF00040F0B9847B681B68184607F08BFA0346DC
:102F0000002B00F0AF84FB6903F500639B681B0A8C
:102F1000C3F30D027B68C3F8D4247B681B68184692
:102F200007F078FA034603F00203022B07D17B680F
:102F30001B685A697B681B6802F002025A617B6851
:102F40001B68184607F066FA034603F01003102BBF
:102F500061D17B681B689A697B681B6822F010024C
:102F60009A613B6A1B6ABB61BB6903F00F0213469F
:102F7000DB0013449B0003F514737A681344043395
:102F80007B61BB6903F4F013B3F5802F24D1BA69D8
:102F900047F6F0731340002B35D07B69D968BB69C5
:102FA0001B099BB2C3F30A039BB21A46386A07F0A7
:102FB0009DF87B69DA68BB691B09C3F30A031A44ED
:102FC0007B69DA607B695A69BB691B09C3F30A0331
:102FD0001A447B695A6116E0BB6903F4F013B3F538
:102FE000402F10D17B6803F29C4308221946386AAF
:102FF00007F07CF87B695A69BB691B09C3F30A03B4
:103000001A447B695A617B681B689A697B681B68F4
:1030100042F010029A617B681B68184607F0FAF9C3
:10302000034603F40023B3F5002F40F0A7800023EC
:103030007B627B681B68184607F0FFF9B86299E06D
:10304000BB6A03F00103002B00F08E807B681B68D5
:103050007A6AD2B21146184607F023FA38613B6902
:1030600003F00103002B0CD07B6A5A01FB69134467
:1030700003F530631A4601239360796A786800F09B
:10308000D1FE3B6903F00803002B0CD07B6A5A0188
:10309000FB69134403F530631A4608239360796A89
:1030A000786800F0A7FF3B6903F01003002B08D0FD
:1030B0007B6A5A01FB69134403F530631A461023F7
:1030C00093603B6903F00203002B30D03B6A5B69DD
:1030D00003F08003802B09D1FB6903F500635B6873
:1030E000FA6902F5006243F4806353607A6A13461A
:1030F000DB0013449B0003F514737A681344043314
:103100007B617B69DB78012B08D17B690022DA7057
:103110007B6ADBB2194678680DF036F87B6A5A0193
:10312000FB69134403F530631A46022393603B693D
:1031300003F02003002B08D07B6A5A01FB6913447B
:1031400003F530631A46202393603B6903F4005370
:10315000002B09D07B6A5A01FB69134403F53063E5
:103160001A464FF4005393607B6A01337B62BB6A5B
:103170005B08BB62BB6A002B7FF462AF7B681B6895
:10318000184607F047F9034603F48023B3F5802F70
:1031900040F0DB807B681B68184607F068F9B8626E
:1031A00000237B62CDE0BB6A03F00103002B00F03B
:1031B000C2807B681B687A6AD2B21146184607F053
:1031C0008EF938613B6903F00103002B57D07B6A0D
:1031D00003F00F03012202FA03F3FB60FB6903F51E
:1031E00000635A6BFB68DB43F96901F5006113402A
:1031F0004B637B6A5A01FB69134403F510631A465B
:10320000012393607B689B79012B32D179687A6ABC
:103210001346DB0013449B000B4420331968786885
:103220007A6A1346DB0013449B0003441C331B687B
:10323000194478687A6A1346DB0013449B00034400
:10324000203319607B6A002B13D179687A6A1346A0
:10325000DB0013449B000B4424331B68002B08D174
:103260007B6818687B6803F29C431A46012107F0CB
:1032700097F97B6ADBB2194678680CF000FF3B696E
:1032800003F00803002B08D07B6A5A01FB69134442
:1032900003F510631A46082393603B6903F010039B
:1032A000002B08D07B6A5A01FB69134403F51063B5
:1032B0001A46102393603B6903F04003002B08D0AB
:1032C0007B6A5A01FB69134403F510631A464023D5
:1032D00093603B6903F00203002B23D0796A386ABC
:1032E00006F076F97A6A1346DB0013449B0010332C
:1032F0007A68134404337B617B69DB78012B08D146
:103300007B690022DA707B6ADBB2194678680CF0C0
:103310004DFF7B6A5A01FB69134403F510631A469B
:10332000022393603B6903F08003002B03D0796A8A
:10333000786800F0EAFC7B6A01337B62BB6A5B0859
:10334000BB62BB6A002B7FF42EAF7B681B681846FC
:1033500007F060F8034603F00043B3F1004F22D1B9
:10336000FB6903F500635B68FA6902F5006223F00C
:10337000010353607B6893F8CC34012B08D17B6840
:10338000002283F8CC24002178680DF0C7F802E011
:1033900078680CF0EBFE7B681B685A697B681B68D9
:1033A00002F000425A617B681B68184607F032F849
:1033B000034603F40063B3F5006F12D1FB6903F514
:1033C00000639B6803F00103012B02D178680CF0C5
:1033D000A7FE7B681B685A697B681B6802F4006261
:1033E0005A617B681B68184607F014F8034603F01F
:1033F0000063B3F1006F21D17B681B685A697B6859
:103400001B6802F000625A617B6893F8CC34002B91
:1034100011D17B68012283F8CC247B681B685B6D2B
:103420009B0803F00F027B68C3F8D0240121786861
:103430000DF074F802E078680CF072FE7B681B688F
:10344000184606F0E7FF034603F48053B3F5805FA8
:1034500040F0B780FB6903F500635B68FA6902F529
:10346000006223F0010353607B681B68102118463B
:1034700006F0AEF80023FB6246E0FB6A5A01FB69E6
:10348000134403F510631A464FF67F339360FB6ACB
:103490005A01FB69134403F510631B68FA6A510172
:1034A000FA690A4402F5106223F400131360FB6A00
:1034B0005A01FB69134403F530631A464FF67F3314
:1034C0009360FB6A5A01FB69134403F530631B6880
:1034D000FA6A5101FA690A4402F5306223F40013D2
:1034E0001360FB6A5A01FB69134403F530631B68E0
:1034F000FA6A5101FA690A4402F5306243F0006346
:103500001360FB6A0133FB627B681B791A46FB6A16
:103510009342B2D3FB6903F50063DB69FA6902F5F4
:10352000006243F00113D3617B68DB7B002B16D074
:10353000FB6903F50063D3F88430FA6902F5006291
:1035400043F00B03C2F88430FB6903F500635B6C46
:10355000FA6902F5006243F00B03536415E0FB695E
:1035600003F500635A69FB6903F50063194642F2EB
:103570002B0313434B61FB6903F500631B69FA6975
:1035800002F5006243F00B031361FB6903F500636E
:103590001B68FA6902F5006223F4FE6313607B681E
:1035A00018687B6899797B6803F29C431A4606F099
:1035B000F7FF7B681B685A697B681B6802F48052BE
:1035C0005A617B681B68184606F024FF034603F423
:1035D0000053B3F5005F23D17B681B68184606F0E3
:1035E000BBFF7B681B68184606F06BF803461A465B
:1035F0007B68DA717B681C6801F0B6FF01467B6866
:10360000DB791A46204605F075FD78680CF05FFD01
:103610007B681B685A697B681B6802F400525A6118
:103620007B681B68184606F0F5FE034603F00803A6
:10363000082B0AD178680CF03CFD7B681B685A693E
:103640007B681B6802F008025A617B681B68184699
:1036500006F0E0FE034603F08003802B23D13B6A93
:103660009B6923F080023B6A9A6101237B6214E02C
:1036700079687A6A1346DB0013449B000B4403F21B
:1036800057231B78012B05D17B6ADBB2194678687A
:1036900000F00AFB7B6A01337B627B681B791A4668
:1036A0007B6A9342E4D37B681B68184606F0B2FE3F
:1036B000034603F48013B3F5801F3CD101237B62E2
:1036C0002BE07B6A5A01FB69134403F510631B6806
:1036D000BB6179687A6A1346DB0013449B000B4494
:1036E00018331B78012B15D1BB69002B12DA7968CE
:1036F0007A6A1346DB0013449B000B441733012204
:103700001A707B6ADBB263F07F03DBB2194678681C
:1037100000F0CAFA7B6A01337B627B681B791A4628
:103720007B6A9342CDD37B681B685A697B681B68B0
:1037300002F480125A617B681B68184606F06AFE24
:10374000034603F40013B3F5001F56D101237B6237
:1037500045E07B6A5A01FB69134403F530631B683B
:10376000BB6179687A6A1346DB0013449B000B4403
:1037700003F516731B78012B2ED1BB69002B2BDAB6
:10378000BB691A0C7B68D3F8D434534003F00103AF
:10379000002B21D179687A6A1346DB0013449B0021
:1037A0000B4403F2572301221A703B6A9B6943F0D2
:1037B00080023B6A9A613B6A5B6903F08003002BDD
:1037C0000AD1FB6903F500635B68FA6902F50062E0
:1037D00043F40073536008E07B6A01337B627B68CB
:1037E0001B791A467B6A9342B3D37B681B685A697C
:1037F0007B681B6802F400125A617B681B681846DC
:1038000006F008FE034603F08043B3F1804F0AD16F
:1038100078680CF0DDFC7B681B685A697B681B6864
:1038200002F080425A617B681B68184606F0F2FD80
:10383000034603F00403042B15D17B681B685B6807
:10384000BB61BB6903F00403002B02D078680CF065
:10385000CDFC7B681B6859687B681B68BA690A43A2
:103860005A6000E000BF3437BD4690BD80B582B0DD
:1038700000AF78600B46FB707B6893F89434012BA3
:1038800001D1022312E07B68012283F894247B6833
:10389000FA785A747B681B68FA781146184606F065
:1038A00051FD7B68002283F89424002318460837D2
:1038B000BD4680BD80B584B000AF78600846114633
:1038C0001A460346FB700B463B801346BB70002331
:1038D000FB7297F90330002B0FDAFB7803F00F022D
:1038E0001346DB0013449B0010337A6813440433FF
:1038F000FB60FB6801225A700FE0FB7803F00F02B7
:103900001346DB0013449B0003F514737A681344D9
:103910000433FB60FB6800225A70FB7803F00F034E
:10392000DAB2FB681A703B88C3F30A02FB689A603C
:10393000FB68BA781A71FB685B78002B04D0FB68CF
:103940001B781A46FB685A83BB78022B02D1FB68AE
:1039500000225A717B6893F89434012B01D1022321
:103960000EE07B68012283F894247B681B68F96869
:10397000184605F0CBFE7B68002283F89424FB7A7E
:1039800018461037BD4680BD80B584B000AF786062
:103990000B46FB7097F90330002B0FDAFB7803F02E
:1039A0000F021346DB0013449B0010337A68134464
:1039B0000433FB60FB6801225A700FE0FB7803F0D0
:1039C0000F021346DB0013449B0003F514737A685F
:1039D00013440433FB60FB6800225A70FB7803F049
:1039E0000F03DAB2FB681A707B6893F89434012BEA
:1039F00001D102230EE07B68012283F894247B68C6
:103A00001B68F968184605F009FF7B68002283F8F7
:103A10009424002318461037BD4680BD80B586B07B
:103A200000AFF8607A603B600B46FB72FB7A03F0F4
:103A30000F021346DB0013449B0003F51473FA686E
:103A4000134404337B617B697A68DA607B693A6886
:103A50001A617B6900225A617B6900225A70FB7AE5
:103A600003F00F03DAB27B691A70FB689B79012BB4
:103A700002D17A687B69DA61FB681868FB689B7918
:103A80001A46796905F0A6FF002318461837BD4687
:103A900080BD80B483B000AF78600B46FB70FB78CC
:103AA00003F00F0279681346DB0013449B000B44BC
:103AB00003F51A731B6818460C37BD465DF8047B86
:103AC000704780B586B000AFF8607A603B600B4607
:103AD000FB72FB7A03F00F021346DB0013449B00DA
:103AE0001033FA68134404337B617B697A68DA60C7
:103AF0007B693A681A617B6900225A617B690122FD
:103B00005A70FB7A03F00F03DAB27B691A70FB6814
:103B10009B79012B02D17A687B69DA61FB681868AE
:103B2000FB689B791A46796905F054FF0023184613
:103B30001837BD4680BD80B584B000AF78600B46B5
:103B4000FB70FB7803F00F037A681279934201D976
:103B500001234FE097F90330002B0FDAFB7803F0D5
:103B60000F021346DB0013449B0010337A681344A2
:103B70000433FB60FB6801225A700DE0FA781346AB
:103B8000DB0013449B0003F514737A681344043379
:103B9000FB60FB6800225A70FB6801229A70FB7878
:103BA00003F00F03DAB2FB681A707B6893F8943461
:103BB000012B01D102231DE07B68012283F89424AC
:103BC0007B681B68F968184606F0E8FAFB7803F092
:103BD0000F03002B09D17B6818687B6899797B6893
:103BE00003F29C431A4606F0DBFC7B68002283F854
:103BF0009424002318461037BD4680BD80B584B09C
:103C000000AF78600B46FB70FB7803F00F037A6817
:103C10001279934201D9012342E097F90330002B36
:103C20000FDAFB7803F00F021346DB0013449B000E
:103C300010337A6813440433FB60FB6801225A7026
:103C40000FE0FB7803F00F021346DB0013449B00E8
:103C500003F514737A6813440433FB60FB68002295
:103C60005A70FB6800229A70FB7803F00F03DAB2F7
:103C7000FB681A707B6893F89434012B01D10223FE
:103C80000EE07B68012283F894247B681B68F96846
:103C9000184606F0F1FA7B68002283F8942400238A
:103CA00018461037BD4680BD80B584B000AF78603F
:103CB0000B46FB7097F90330002B0CDAFB7803F00E
:103CC0000F021346DB0013449B0010337A68134441
:103CD0000433FB600CE0FB7803F00F021346DB00BB
:103CE00013449B0003F514737A6813440433FB6098
:103CF0007B681B68F968184606F010F90346FB72EA
:103D0000FB7A18461037BD4680BD80B58AB002AF39
:103D1000786039607B681B687B617B693B613A68CE
:103D20001346DB0013449B0010337A6813440433BA
:103D3000FB60FB685A69FB681B699A4201D9012341
:103D40006BE0FB681A69FB685B69D31AFB61FB686F
:103D50009B68FA699A4202D9FB689B68FB61FB6920
:103D600003339B08BB612AE0FB681A69FB685B6947
:103D7000D31AFB61FB689B68FA699A4202D9FB6817
:103D80009B68FB61FB6903339B08BB61FB68D968D7
:103D90003B68DAB2FB6998B27B689B790093034673
:103DA000786906F065F9FB68DA68FB691A44FB6814
:103DB000DA60FB685A69FB691A44FB685A613B6820
:103DC0005A013B69134403F510639B699BB2BA69BE
:103DD0009A4209D8FB685A69FB681B699A4203D268
:103DE000FB681B69002BBFD1FB681A69FB685B6924
:103DF0009A4211D83B6803F00F03012202FA03F341
:103E0000BB603B6903F500635A6BBB68DB433969F0
:103E100001F5006113404B63002318462037BD466F
:103E200080BD000080B588B000AF786039607B68E5
:103E30001B68FB61FB69BB61FB693C3304331B6896
:103E40007B613B685A01BB69134403F530639B688F
:103E50003B617B689B79012B7BD13B6903F00803B5
:103E6000002B15D07B69614A934240F2B9803B69CF
:103E700003F40043002B00F0B3803B685A01BB6998
:103E8000134403F530631A464FF400439360A7E0F0
:103E90003B6903F02003002B09D03B685A01BB6942
:103EA000134403F530631A462023936098E03B697E
:103EB00003F02803002B40F093807B694B4A934228
:103EC0000FD93B6903F40043002B0AD03B685A0129
:103ED000BB69134403F530631A464FF40043936003
:103EE0007EE03A681346DB0013449B0003F514732D
:103EF0007A6813440433FB60FB681A6A3B68590113
:103F0000BB690B4403F530631B69C3F31203D21A78
:103F1000FB685A613B68002B14D1FB681B69002BBE
:103F200009D17B6818687B6803F29C431A4601211B
:103F300006F036FB06E0FB68DA68FB685B691A444A
:103F4000FB68DA603B68DBB2194678680CF07CF8F5
:103F500046E07B69264A934224D13B6903F400433F
:103F6000002B0AD03B685A01BB69134403F5306348
:103F70001A464FF40043936032E03B6903F020039C
:103F8000002B08D03B685A01BB69134403F530632A
:103F90001A46202393603B68DBB2194678680CF020
:103FA00053F81DE03B68002B14D179683A6813463A
:103FB000DB0013449B000B4403F519731B68002BB3
:103FC00008D17B6818687B6803F29C431A4600217D
:103FD00006F0E6FA3B68DBB2194678680CF034F874
:103FE000002318462037BD4680BD00BF0A30544F1D
:103FF0000A31544F80B586B000AF786039607B6875
:104000001B687B617B693B617B693C3304331B68C4
:10401000FB603B685A013B69134403F530639B68BE
:10402000BB60FB68154A93420ED9BB6803F400439A
:10403000002B09D03B685A013B69134403F53063F8
:104040001A464FF40043936078680BF0EBFFFB686F
:104050000A4A93420CD97B689B79012B08D17B6873
:1040600018687B6803F29C431A46012106F098FA0F
:10407000002318461837BD4680BD00BF0A30544F94
:1040800080B485B000AF78600B46FB7013463B8070
:104090007B681B685B6ABB60FB78002B07D13B88A1
:1040A00019047B681B68BA680A439A6228E07B6837
:1040B0001B689B6A1B0CBA681344BB600023FB732C
:1040C0000DE07B681A68FB7B40339B0013445B6800
:1040D0001B0CBA681344BB60FB7B0133FB73FA7B98
:1040E000FB78013B9A42ECD33B8818047B68196843
:1040F000FB78013BBA68024340339B000B445A6093
:10410000002318461437BD465DF8047B704780B421
:1041100083B000AF78600B467B807B681B687A8831
:104120005A62002318460C37BD465DF8047B704781
:1041300080B485B000AF78607B681B68FB607B68EB
:104140000122C3F8D8247B68002283F8CC24FB68C2
:104150009B6943F00062FB689A61FB685A6D054BEE
:104160001343FA685365002318461437BD465DF8BB
:10417000047B70470300001080B400AF054B1B6840
:10418000044A43F48073136000BFBD465DF8047BAE
:10419000704700BF0070004080B582B000AF0023C0
:1041A0007B60234B1B6C224A43F080531364204BEB
:1041B0001B6C03F080533B603B681E4B1B681D4A21
:1041C00043F480331360FDF71FFB786009E0FDF7CF
:1041D0001BFB02467B68D31AB3F57A7F01D9032310
:1041E00022E0144B5B6803F48033B3F5803FEED1DB
:1041F000104B1B680F4A43F400331360FDF704FBB8
:10420000786009E0FDF700FB02467B68D31AB3F53E
:104210007A7F01D9032307E0064B5B6803F4003380
:10422000B3F5003FEED1002318460837BD4680BDE8
:10423000003802400070004080B586B002AF786060
:10424000FDF7E2FAF8607B68002B01D1012367E0FB
:104250007B6893F84130DBB2002B0BD17B680022E6
:1042600083F840207868FCF7F9FD41F288317868DE
:1042700000F0CAFA7B681B681B6823F4F8517B685E
:104280009B68013B1A027B681B680A431A607B68C3
:104290009B6C0093FB6800222021786800F0F5FAFF
:1042A0000346FB72FB7A002B35D17B681B681A68CA
:1042B0001D4B13407A68526811067A68D268114320
:1042C0007A68D26911437A68126A11437A6812686F
:1042D0000B4313607B681B685A68144B13407A6861
:1042E000126911047A68526911437A68926911431C
:1042F0007A6812680B4353607B681B681A687B6896
:104300001B6842F001021A607B6800225A647B68D5
:10431000012283F841207B68002283F84020FB7A49
:1043200018461037BD4680BD2FFFFF00FEF8E0FFA6
:1043300080B586B000AF78607B681B689B687B6146
:104340007B681B681B683B617B6903F00403002BDF
:1043500064D03B6903F48023002B5FD07B681B682B
:104360002033FB607B6893F84130DBB2122B25D100
:104370001CE07B68DB6A002B0FD07B685B6A1A78D5
:10438000FB681A707B685B6A5A1C7B685A627B68A0
:10439000DB6A5A1E7B68DA6208E07B681B681A6871
:1043A0007B681B6822F480221A6033E07B681B68FC
:1043B0009B6803F00403002BDBD12BE07B6893F8B0
:1043C0004130DBB2222B25D11DE07B689B6B002B9B
:1043D00010D07B681B6BFA681278D2B21A707B68B7
:1043E0001B6B5A1C7B681A637B689B6B5A1E7B682D
:1043F0009A6308E07B681B681A687B681B6822F474
:1044000080221A6006E07B681B689B6803F0040347
:10441000002BDAD1786800F0D9F93CE17B6903F030
:104420000203002B00F0B0803B6903F40033002B43
:1044300000F0AA807B681B680222DA607B681B6838
:104440001A687B681B6822F4E0221A607B6893F884
:104450004130DBB2122B20D17B681B681B6803F054
:104460000403002B11D07B681B681A687B681B68EB
:1044700022F004021A607B68DB6B1B681A687B6899
:10448000DB6B1B6822F001021A607B68012283F853
:104490004120786800F090F9FAE07B6893F84130A9
:1044A000DBB2222B43D17B681B681B6803F004033B
:1044B000002B12D07B681B681A687B681B6822F08F
:1044C00004021A607B68DB6B1B681A687B68DB6B15
:1044D0001B6822F001021A6021E07B681B68203310
:1044E000FB6013E07B689B6B002B17D07B681B6B1A
:1044F000FA681278D2B21A707B681B6B5A1C7B6800
:104500001A637B689B6B5A1E7B689A637B681B6887
:104510009B6803F47C53002BE4D100E000BF7B6870
:10452000012283F84120786800F03CF9B0E07B6814
:1045300093F84130DBB2022B07D17B68012283F86C
:104540004120786800F024F9A2E07B6893F84130BC
:10455000DBB2082B40F09C807B681B685A697B6843
:104560001B6822F040625A617B68012283F8412077
:104570007B685B6C002B03D1786800F0FFF887E064
:10458000786800F0F1F883E07B6903F00803002B02
:104590001FD03B6903F40023002B1AD07B681B68F3
:1045A0000822DA607B681B681B6803F48003002B19
:1045B0000BD07B681B681A687B681B6822F410228A
:1045C0001A607B68012283F84120786800F008F9BE
:1045D00061E07B6903F00103002B47D03B6903F4E2
:1045E0008033002B42D07B681B680122DA607B6835
:1045F0001B681A687B681B6822F470221A607B684B
:104600005B6C43F002027B685A647B681B681B6822
:1046100003F00403002B21D07B681B681A687B68B9
:104620001B6822F004021A607B68DB6B1C4A1A6567
:104630007B68DB6B1846FDF737FB0346002B29D060
:104640007B685B6C43F004027B685A647B680122E0
:1046500083F84120786800F087F81BE07B6801222E
:1046600083F84120786800F07FF813E07B6903F05D
:104670001003002B0FD03B6903F48013002B0AD0EA
:104680007B681B681022DA60786800F0B3F802E0FB
:1046900000BF00E000BF00BF1837BD4680BD00BFAF
:1046A0002548000880B588B002AFF860B9607A602C
:1046B000FDF7AAF83861FB6893F84030DBB2012BB4
:1046C00001D102234CE0FB68012283F84020FB6803
:1046D00093F84130DBB2012B3BD1FB6800225A64D6
:1046E000FB68822283F84120FB689B6C00933B6946
:1046F00000222021F86800F0C8F80346FB75FB7D16
:10470000002B28D1FB681B681B6823F008017B681D
:104710005A68FB681B680A431A607B685B68082B51
:1047200010D1FB681B687A6812681A63FB681B6803
:104730001022DA60FB681B681A68FB681B6842F489
:1047400080121A604FF04062B968F86800F0D4F83F
:1047500001E00223FB75FB68002283F84020FB7D0B
:1047600018461837BD4680BD80B483B000AF78606E
:1047700000BF0C37BD465DF8047B704780B483B042
:1047800000AF786000BF0C37BD465DF8047B704712
:1047900080B483B000AF786000BF0C37BD465DF8D1
:1047A000047B704780B483B000AF786000BF0C37E3
:1047B000BD465DF8047B704780B483B000AF78607D
:1047C00000BF0C37BD465DF8047B704780B483B0F2
:1047D00000AF786000BF0C37BD465DF8047B7047C2
:1047E00080B483B000AF786000BF0C37BD465DF881
:1047F000047B704780B483B000AF786000BF0C3793
:10480000BD465DF8047B704780B483B000AF78602C
:1048100039607B683A689A6400BF0C37BD465DF822
:10482000047B704780B584B000AF78607B689B6B79
:10483000FB60FB6800229A63FB680022DA62FB6877
:1048400093F84130DBB2082B14D1FB681B680222BD
:10485000DA60FB681B681A68FB681B6842F4003268
:104860001A60FB681B681A68FB681B6842F002024A
:104870001A6006E0FB68012283F84120F868FFF720
:1048800073FF00BF1037BD4680BD80B584B000AF58
:10489000F860B9603B601346FB711AE0BB69B3F185
:1048A000FF3F16D0FCF7B0FF02463B68D31ABA6947
:1048B0009A4202D3BB69002B0BD1FB68042283F818
:1048C0004120FB685B6C43F00102FB685A640123E2
:1048D0000EE0FB681B689A68BB681340002B14BF8E
:1048E00001230023DBB21A46FB799A42D6D100237A
:1048F00018461037BD4680BD80B485B000AFF86063
:10490000B9607A60BB685B6A002B09D07B68B3F141
:10491000406F05D0BB689A6AFB681B68013A1A6150
:10492000BB689B69002B00F0C180BB681B6A002B31
:1049300063D0FB681B68BA689268DA61BB68DB69A0
:10494000002B31D0BB68DA6ABB681B6B1A43BB68AB
:104950005B6B1A43BB685B6A1A43BB685B699B0469
:104960001A43BB681B691A43BB681B6A1A43BB68BE
:10497000DB681A43BB68DB691A43BB689B691A434F
:10498000BB681B6842EA0301FB681B687A680A433C
:104990005A617B68B3F1406F00F03F81FB681B6890
:1049A000BA6852689A6138E1BB68DA6ABB681B6B07
:1049B0001A43BB685B6B1A43BB685B6A1A43BB68EC
:1049C0005B699B041A43BB681B691A43BB681B6A7B
:1049D0001A43BB68DB691A43BB689B691A43BB680F
:1049E0001B6842EA0301FB681B687A680A435A6144
:1049F000FB681B6800229A610FE1BB68DB69002B32
:104A00002ED0BB68DA6ABB681B6B1A43BB685B6B52
:104A10001A43BB685B6A1A43BB685B699B041A4311
:104A2000BB681B6A1A43BB68DB681A43BB68DB6957
:104A30001A43BB689B691A43BB681B6842EA0301BF
:104A4000FB681B687A680A435A617B68B3F1406F60
:104A500000F0E380FB681B68BA6852689A61DCE08A
:104A6000BB68DA6ABB681B6B1A43BB685B6B1A4393
:104A7000BB685B6A1A43BB685B699B041A43BB68EB
:104A80001B6A1A43BB68DB691A43BB689B691A43FC
:104A9000BB681B6842EA0301FB681B687A680A432B
:104AA0005A61FB681B6800229A61B6E0BB681B6A0A
:104AB000002B5DD0FB681B68BA689268DA61BB683E
:104AC000DB69002B2ED0BB68DA6ABB681B6B1A430C
:104AD000BB685B6B1A43BB685B6A1A43BB685B6964
:104AE0009B041A43BB681B691A43BB681B6A1A43C1
:104AF000BB68DB681A43BB68DB691A43BB689B6908
:104B000042EA0301FB681B687A680A435A617B68C2
:104B1000B3F1406F00F08180FB681B68BA6852688F
:104B20009A617AE0BB68DA6ABB681B6B1A43BB68A0
:104B30005B6B1A43BB685B6A1A43BB685B699B0487
:104B40001A43BB681B691A43BB681B6A1A43BB68DC
:104B5000DB691A43BB689B6942EA0301FB681B6877
:104B60007A680A435A61FB681B6800229A6154E024
:104B7000BB68DB69002B2AD0BB68DA6ABB681B6B99
:104B80001A43BB685B6B1A43BB685B6A1A43BB681A
:104B90005B699B041A43BB681B6A1A43BB68DB68EA
:104BA0001A43BB68DB691A43BB689B6942EA03018D
:104BB000FB681B687A680A435A617B68B3F1406FEF
:104BC0002BD0FB681B68BA6852689A6125E0BB6805
:104BD0005B6A002B21D0BB68DA6ABB681B6B1A4387
:104BE000BB685B6B1A43BB685B6A1A43BB685B6953
:104BF0009B041A43BB681B6A1A43BB68DB691A43F0
:104C0000BB689B6942EA0301FB681B687A680A4338
:104C10005A61FB681B6800229A6100BF1437BD46C9
:104C20005DF8047B7047000080B586B000AF786007
:104C30000023FB757B68002B01D101239BE27B687D
:104C40001B6803F00103002B00F08780964B9B68E4
:104C500003F00C03042B0CD0934B9B6803F00C0364
:104C6000082B12D1904B5B6803F48003B3F5800FDF
:104C70000BD18D4B1B6803F40033002B6CD07B6889
:104C80005B68002B68D1012375E27B685B68B3F534
:104C9000803F06D1844B1B68834A43F48033136002
:104CA0002EE07B685B68002B0CD17F4B1B687E4A33
:104CB00023F4803313607C4B1B687B4A23F48023EE
:104CC00013601DE07B685B68B3F5A02F0CD1764BB9
:104CD0001B68754A43F480231360734B1B68724A48
:104CE00043F4803313600BE06F4B1B686E4A23F470
:104CF000803313606C4B1B686B4A23F48023136072
:104D00007B685B68002B13D0FCF77EFD386108E000
:104D1000FCF77AFD02463B69D31A642B01D90323C1
:104D200029E2614B1B6803F40033002BF0D014E040
:104D3000FCF76AFD386108E0FCF766FD02463B6956
:104D4000D31A642B01D9032315E2574B1B6803F4D4
:104D50000033002BF0D100E000BF7B681B6803F03C
:104D60000203002B69D0504B9B6803F00C03002B0F
:104D70000BD04D4B9B6803F00C03082B1CD14A4B06
:104D80005B6803F48003002B16D1474B1B6803F0CC
:104D90000203002B05D07B68DB68012B01D00123C7
:104DA000E9E1414B1B6823F0F8027B681B69DB00DB
:104DB0003D4913430B6040E07B68DB68002B23D048
:104DC000394B1B68384A43F001031360FCF71CFDA4
:104DD000386108E0FCF718FD02463B69D31A022B44
:104DE00001D90323C7E1304B1B6803F00203002BFA
:104DF000F0D02D4B1B6823F0F8027B681B69DB00A9
:104E0000294913430B6018E0274B1B68264A23F0FF
:104E100001031360FCF7F8FC386108E0FCF7F4FCD0
:104E200002463B69D31A022B01D90323A3E11E4B8F
:104E30001B6803F00203002BF0D17B681B6803F0B2
:104E40000803002B38D07B685B69002B19D0164B08
:104E50005B6F154A43F001035367FCF7D5FC3861DB
:104E600008E0FCF7D1FC02463B69D31A022B01D9BA
:104E7000032380E10C4B5B6F03F00203002BF0D0A7
:104E80001AE0094B5B6F084A23F001035367FCF7F4
:104E9000BBFC38610AE0FCF7B7FC02463B69D31A59
:104EA000022B03D9032366E100380240924B5B6F6B
:104EB00003F00203002BEED17B681B6803F00403B0
:104EC000002B00F0A4808C4B1B6C03F08053002B54
:104ED0000DD1894B1B6C884A43F080531364864B79
:104EE0001B6C03F08053BB60BB680123FB75834BD5
:104EF0001B6803F48073002B18D1804B1B687F4A1A
:104F000043F480731360FCF77FFC386108E0FCF722
:104F10007BFC02463B69D31A642B01D903232AE1A7
:104F2000764B1B6803F48073002BF0D07B689B6882
:104F3000012B06D1704B1B6F6F4A43F001031367BF
:104F40002DE07B689B68002B0CD16B4B1B6F6A4A72
:104F500023F001031367684B1B6F674A23F00403B8
:104F600013671CE07B689B68052B0CD1624B1B6FA1
:104F7000614A43F0040313675F4B1B6F5E4A43F0C3
:104F8000010313670BE05C4B1B6F5B4A23F00103CB
:104F90001367594B1B6F584A23F0040313677B6850
:104FA0009B68002B15D0FCF72FFC38610AE0FCF75A
:104FB0002BFC02463B69D31A41F28832934201D955
:104FC0000323D8E04C4B1B6F03F00203002BEED001
:104FD00014E0FCF719FC38610AE0FCF715FC024606
:104FE0003B69D31A41F28832934201D90323C2E0CC
:104FF000414B1B6F03F00203002BEED1FB7D012B15
:1050000005D13D4B1B6C3C4A23F0805313647B68F5
:105010009B69002B00F0AE80374B9B6803F00C03BC
:10502000082B6DD07B689B69022B4BD1324B1B68E0
:10503000314A23F080731360FCF7E6FB386108E027
:10504000FCF7E2FB02463B69D31A022B01D903238A
:1050500091E0294B1B6803F00073002BF0D17B68B3
:10506000DA697B681B6A1A437B685B6A9B011A4397
:105070007B689B6A5B08013B1B041A437B68DB6A05
:105080001B061A437B681B6B1B071B4913434B60B2
:10509000194B1B68184A43F080731360FCF7B4FB8C
:1050A000386108E0FCF7B0FB02463B69D31A022BDB
:1050B00001D903235FE0104B1B6803F00073002B42
:1050C000F0D057E00C4B1B680B4A23F08073136041
:1050D000FCF79AFB386108E0FCF796FB02463B6957
:1050E000D31A022B01D9032345E0034B1B6803F0BD
:1050F0000073002BF0D13DE000380240007000400A
:105100001F4B5B68FB607B689B69012B30D0FB68A1
:1051100003F480027B68DB699A4229D1FB6803F0C3
:105120003F027B681B6A9A4222D1FA6847F6C07335
:1051300013407A68526A9201934219D1FB6803F4D2
:1051400040327B689B6A5B08013B1B049A420FD18B
:10515000FB6803F070627B68DB6A1B069A4207D12A
:10516000FB6803F0E0427B681B6B1B079A4201D08F
:10517000012300E0002318461837BD4680BD00BF5C
:105180000038024080B584B000AF786039600023F9
:10519000FB607B68002B01D10123D0E06A4B1B68C8
:1051A00003F00F033A689A4210D9674B1B6823F04B
:1051B0000F0265493B6813430B60634B1B6803F0A8
:1051C0000F033A689A4201D00123B8E07B681B685C
:1051D00003F00203002B20D07B681B6803F004035C
:1051E000002B05D0594B9B68584A43F4E053936019
:1051F0007B681B6803F00803002B05D0534B9B68AA
:10520000524A43F460439360504B9B6823F0F00292
:105210007B689B684D4913438B607B681B6803F078
:105220000103002B40D07B685B68012B07D1474B03
:105230001B6803F40033002B15D101237FE07B684A
:105240005B68022B07D1414B1B6803F00073002BF6
:1052500009D1012373E03D4B1B6803F00203002BCF
:1052600001D101236BE0394B9B6823F003027B687B
:105270005B68364913438B60FCF7C6FAF8600AE0B6
:10528000FCF7C2FA0246FB68D31A41F28832934215
:1052900001D9032353E02D4B9B6803F00C027B687C
:1052A0005B689B009A42EBD1274B1B6803F00F030E
:1052B0003A689A4210D2244B1B6823F00F0222490D
:1052C0003B6813430B60204B1B6803F00F033A68E5
:1052D0009A4201D0012332E07B681B6803F004038B
:1052E000002B08D0194B9B6823F4E0527B68DB68E5
:1052F000164913438B607B681B6803F00803002B7F
:1053000009D0124B9B6823F460427B681B69DB0069
:105310000E4913438B6000F021F802460B4B9B684B
:105320001B0903F00F030A49CB5C22FA03F3094A75
:105330001360094B1B681846FCF722FA0023184635
:105340001037BD4680BD00BF003C0240003802401F
:105350002411010800000020040000202DE9B04FB6
:1053600094B000AF00237B640023FB6400233B6404
:105370000023BB64794B9B6803F00C03082B0DD012
:10538000082B00F2E180002B02D0042B03D0DBE0DD
:10539000734BBB64DBE0734BBB64D8E06F4B5B6863
:1053A00003F03F037B646D4B5B6803F48003002BC9
:1053B00063D06A4B5B689B090022BB63FA63BB6BDB
:1053C000C3F308033B6300237B63D7E90C45224604
:1053D0002B464FF000004FF00001590141EAD26125
:1053E000500102460B462146511A3961294663EBAA
:1053F00001037B614FF000024FF00003D7E904ABDB
:1054000059468B01514643EA916351468A01514600
:10541000B2EB0108594663EB01094FF000024FF06F
:1054200000034FEAC90343EA58734FEAC8029046A3
:105430009946234618EB0303BB602B4649EB030355
:10544000FB604FF000024FF00003D7E90245294608
:105450004B02214643EAD15321464A0210461946DF
:105460007B6C0022BB62FA62D7E90A23FAF738FFA5
:1054700002460B461346FB6458E0384B5B689B09B9
:10548000002218461146C0F308033B6200237B62EA
:10549000D7E9088942464B464FF000004FF0000123
:1054A000590141EAD261500102460B464146B2EB36
:1054B000010A494663EB010B4FF000024FF0000375
:1054C0004FEA8B1343EA9A634FEA8A12B2EB0A045B
:1054D00063EB0B054FF000024FF00003EB0043EAD3
:1054E0005473E20014461D464346E3183B604B46A6
:1054F00045EB03037B604FF000024FF00003D7E958
:10550000004529468B02214643EA915321468A02EF
:10551000104619467B6C0022BB61FA61D7E906236D
:10552000FAF7DEFE02460B461346FB640B4B5B6844
:105530001B0C03F0030301335B003B64FA6C3B6C10
:10554000B2FBF3F3BB6402E0054BBB6400BFBB6C72
:1055500018465037BD46BDE8B08F00BF0038024046
:105560000024F40000127A0080B400AF034B1B68E3
:105570001846BD465DF8047B704700BF0000002060
:1055800080B500AFFFF7F0FF0246054B9B689B0A12
:1055900003F007030349CB5C22FA03F3184680BDEE
:1055A000003802403411010880B500AFFFF7DCFF7E
:1055B0000246054B9B685B0B03F007030349CB5C7A
:1055C00022FA03F3184680BD003802403411010866
:1055D00080B588B000AF786000237B6100233B6119
:1055E0000023FB600023FB610023BB617B681B6819
:1055F00003F00103002B12D0694B9B68684A23F427
:1056000000039360664B9A687B685B6B6449134345
:105610008B607B685B6B002B01D10123FB617B6896
:105620001B6803F40023002B17D05D4BD3F88C309C
:1056300023F440127B68DB6B59491343C1F88C306B
:105640007B68DB6BB3F5801F01D10123FB617B68B5
:10565000DB6B002B01D10123BB617B681B6803F46A
:105660008013002B17D04E4BD3F88C3023F440021C
:105670007B681B6C4A491343C1F88C307B681B6CF8
:10568000B3F5800F01D10123FB617B681B6C002BFC
:1056900001D10123BB617B681B6803F08073002B81
:1056A00001D00123FB617B681B6803F02003002B02
:1056B00000F08B803A4B1B6C394A43F080531364E3
:1056C000374B1B6C03F08053BB60BB68354B1B68CA
:1056D000344A43F480731360FCF796F8786108E06D
:1056E000FCF792F802467B69D31A642B01D9032395
:1056F0008FE32C4B1B6803F48073002BF0D0284BF6
:105700001B6F03F440733B613B69002B35D07B6812
:105710001B6B03F440733A699A422ED0204B1B6FE7
:1057200023F440733B611E4B1B6F1D4A43F48033CF
:1057300013671B4B1B6F1A4A23F480331367184AF5
:105740003B691367164B1B6F03F00103012B14D148
:10575000FCF75AF878610AE0FCF756F802467B69D4
:10576000D31A41F28832934201D9032351E30C4BFF
:105770001B6F03F00203002BEED07B681B6B03F45E
:105780004073B3F5407F11D1054B9B6823F4F812A9
:105790007B68196B044B0B40014913438B600BE092
:1057A0000038024000700040FFFCFF0FAC4B9B68CC
:1057B000AB4A23F4F8139360A94B1A6F7B681B6BF9
:1057C000C3F30B03A64913430B677B681B6803F005
:1057D0001003002B10D0A24BD3F88C30A04A23F03A
:1057E0008073C2F88C309E4BD3F88C207B689B6B07
:1057F0009B491343C1F88C307B681B6803F48043DA
:10580000002B0AD0964BD3F8903023F440327B68BB
:105810005B6E93491343C1F890307B681B6803F4B7
:105820000043002B0AD08E4BD3F8903023F4402253
:105830007B689B6E8A491343C1F890307B681B6874
:1058400003F48033002B0AD0854BD3F8903023F437
:1058500040127B68DB6E82491343C1F890307B684D
:105860001B6803F40033002B0AD07D4BD3F8903033
:1058700023F440027B681B6F79491343C1F89030D1
:105880007B681B6803F04003002B0AD0744BD3F8ED
:10589000903023F003027B685B6C71491343C1F8BD
:1058A00090307B681B6803F08003002B0AD06C4BA0
:1058B000D3F8903023F00C027B689B6C684913434B
:1058C000C1F890307B681B6803F48073002B0AD00A
:1058D000634BD3F8903023F030027B68DB6C604977
:1058E0001343C1F890307B681B6803F40073002BEE
:1058F0000AD05B4BD3F8903023F0C0027B681B6D5D
:1059000057491343C1F890307B681B6803F48063E8
:10591000002B0AD0524BD3F8903023F440727B68AE
:105920005B6D4F491343C1F890307B681B6803F4EB
:105930000063002B0AD04A4BD3F8903023F4406226
:105940007B689B6D46491343C1F890307B681B68A8
:1059500003F48053002B0AD0414BD3F8903023F44A
:1059600040527B68DB6D3E491343C1F890307B6841
:105970001B6803F40053002B0AD0394BD3F8903046
:1059800023F440427B681B6E35491343C1F89030C5
:105990007B681B6803F48003002B0AD0304BD3F8DC
:1059A000903023F080627B689B6F2D491343C1F8D0
:1059B00090307B681B6803F40013002B11D0284B38
:1059C000D3F8903023F000627B68DB6F24491343E7
:1059D000C1F890307B68DB6FB3F1006F01D1012318
:1059E000BB617B681B6803F00803002B01D0012317
:1059F000BB617B681B6803F48023002B0AD0184B23
:105A0000D3F8903023F040727B685B6F14491343E6
:105A1000C1F890307B681B6803F40003002B0BD0A7
:105A20000F4BD3F8903023F080527B68D3F880304E
:105A30000B491343C1F890307B681B6803F0806307
:105A4000002B0FD0064BD3F8903023F000527B6828
:105A5000D3F8843002491343C1F8903002E000BF0C
:105A6000003802407B681B6803F00063002B0BD0FA
:105A70008A4BD3F88C3023F000727B68D3F88830DF
:105A800086491343C1F88C307B681B6803F0805350
:105A9000002B0BD0814BD3F88C3023F080627B68D5
:105AA000D3F88C307D491343C1F88C30FB69012B4E
:105AB00006D07B681B6803F00073002B00F0D680D3
:105AC000764B1B68754A23F080631360FBF79CFEDE
:105AD000786108E0FBF798FE02467B69D31A642BD5
